{"project/contracts/BaseSeasons.sol":{"BaseSeasons":{"abi":[{"inputs":[],"stateMutability":"nonpayable","type":"constructor"},{"anonymous":false,"inputs":[{"indexed":false,"internalType":"uint256","name":"seasonId","type":"uint256"},{"indexed":false,"internalType":"uint256","name":"startTime","type":"uint256"}],"name":"NewSeasonStarted","type":"event"},{"anonymous":false,"inputs":[{"indexed":true,"internalType":"address","name":"player","type":"address"},{"indexed":true,"internalType":"uint256","name":"gameId","type":"uint256"},{"indexed":false,"internalType":"uint256","name":"score","type":"uint256"},{"indexed":false,"internalType":"uint256","name":"timestamp","type":"uint256"},{"indexed":false,"internalType":"uint256","name":"seasonId","type":"uint256"}],"name":"ScoreSubmitted","type":"event"},{"anonymous":false,"inputs":[{"indexed":true,"internalType":"address","name":"player","type":"address"},{"indexed":false,"internalType":"uint256","name":"newStreak","type":"uint256"}],"name":"StreakUpdated","type":"event"},{"inputs":[],"name":"SEASON_DURATION","outputs":[{"internalType":"uint256","name":"","type":"uint256"}],"stateMutability":"view","type":"function"},{"inputs":[],"name":"currentSeason","outputs":[{"internalType":"uint256","name":"","type":"uint256"}],"stateMutability":"view","type":"function"},{"inputs":[],"name":"getCurrentSeason","outputs":[{"internalType":"uint256","name":"","type":"uint256"}],"stateMutability":"view","type":"function"},{"inputs":[{"internalType":"uint256","name":"gameId","type":"uint256"},{"internalType":"uint256","name":"seasonId","type":"uint256"}],"name":"getLeaderboard","outputs":[{"components":[{"internalType":"address","name":"player","type":"address"},{"internalType":"uint256","name":"gameId","type":"uint256"},{"internalType":"uint256","name":"score","type":"uint256"},{"internalType":"uint256","name":"timestamp","type":"uint256"},{"internalType":"uint256","name":"seasonId","type":"uint256"}],"internalType":"struct BaseSeasons.Score[]","name":"","type":"tuple[]"}],"stateMutability":"view","type":"function"},{"inputs":[{"internalType":"address","name":"player","type":"address"}],"name":"getPlayerStats","outputs":[{"components":[{"internalType":"address","name":"wallet","type":"address"},{"internalType":"uint256","name":"totalScore","type":"uint256"},{"internalType":"uint256","name":"bestScore","type":"uint256"},{"internalType":"uint256","name":"gamesPlayed","type":"uint256"},{"internalType":"uint256","name":"currentStreak","type":"uint256"},{"internalType":"uint256","name":"lastPlayed","type":"uint256"}],"internalType":"struct BaseSeasons.Player","name":"","type":"tuple"}],"stateMutability":"view","type":"function"},{"inputs":[{"internalType":"uint256","name":"seasonId","type":"uint256"}],"name":"getTopPlayers","outputs":[{"internalType":"address[]","name":"topAddresses","type":"address[]"},{"internalType":"uint256[]","name":"topScores","type":"uint256[]"}],"stateMutability":"view","type":"function"},{"inputs":[{"internalType":"uint256","name":"","type":"uint256"},{"internalType":"address","name":"","type":"address"}],"name":"hasParticipatedInSeason","outputs":[{"internalType":"bool","name":"","type":"bool"}],"stateMutability":"view","type":"function"},{"inputs":[{"internalType":"uint256","name":"","type":"uint256"},{"internalType":"address","name":"","type":"address"}],"name":"playerSeasonTotalScore","outputs":[{"internalType":"uint256","name":"","type":"uint256"}],"stateMutability":"view","type":"function"},{"inputs":[{"internalType":"address","name":"","type":"address"}],"name":"players","outputs":[{"internalType":"address","name":"wallet","type":"address"},{"internalType":"uint256","name":"totalScore","type":"uint256"},{"internalType":"uint256","name":"bestScore","type":"uint256"},{"internalType":"uint256","name":"gamesPlayed","type":"uint256"},{"internalType":"uint256","name":"currentStreak","type":"uint256"},{"internalType":"uint256","name":"lastPlayed","type":"uint256"}],"stateMutability":"view","type":"function"},{"inputs":[{"internalType":"uint256","name":"","type":"uint256"}],"name":"seasonParticipants","outputs":[{"internalType":"address","name":"","type":"address"}],"stateMutability":"view","type":"function"},{"inputs":[],"name":"seasonStartTime","outputs":[{"internalType":"uint256","name":"","type":"uint256"}],"stateMutability":"view","type":"function"},{"inputs":[],"name":"startNewSeason","outputs":[],"stateMutability":"nonpayable","type":"function"},{"inputs":[{"internalType":"uint256","name":"gameId","type":"uint256"},{"internalType":"uint256","name":"score","type":"uint256"}],"name":"submitScore","outputs":[],"stateMutability":"nonpayable","type":"function"}],"evm":{"bytecode":{"linkReferences":{},"object":"608060405260015f55348015610013575f80fd5b5042600181905550611981806100285f395ff3fe608060405234801561000f575f80fd5b50600436106100cd575f3560e01c8063b6ceb61f1161008a578063c5d8860d11610064578063c5d8860d14610224578063d3b30b7514610254578063dc185e3514610272578063e2eb41ff14610290576100cd565b8063b6ceb61f146101cb578063ba3c0067146101d5578063bcb3962114610206576100cd565b80634fd66eae146100d157806373af16fc146101015780638104ae4d146101315780638358ba081461014f578063a68643c11461016b578063ab12d87f1461019b575b5f80fd5b6100eb60048036038101906100e691906111f9565b6102c5565b6040516100f891906112c4565b60405180910390f35b61011b60048036038101906101169190611307565b6103a2565b6040516101289190611453565b60405180910390f35b61013961049b565b6040516101469190611482565b60405180910390f35b61016960048036038101906101649190611307565b6104a1565b005b6101856004803603810190610180919061149b565b6109ce565b60405161019291906114d5565b60405180910390f35b6101b560048036038101906101b091906114ee565b610a09565b6040516101c29190611546565b60405180910390f35b6101d3610a33565b005b6101ef60048036038101906101ea919061149b565b610aee565b6040516101fd9291906116af565b60405180910390f35b61020e611011565b60405161021b9190611482565b60405180910390f35b61023e600480360381019061023991906114ee565b611016565b60405161024b9190611482565b60405180910390f35b61025c611036565b6040516102699190611482565b60405180910390f35b61027a61103e565b6040516102879190611482565b60405180910390f35b6102aa60048036038101906102a591906111f9565b611045565b6040516102bc969594939291906116e4565b60405180910390f35b6102cd61111c565b60025f8373ffffffffffffffffffffffffffffffffffffffff1673ffffffffffffffffffffffffffffffffffffffff1681526020019081526020015f206040518060c00160405290815f82015f9054906101000a900473ffffffffffffffffffffffffffffffffffffffff1673ffffffffffffffffffffffffffffffffffffffff1673ffffffffffffffffffffffffffffffffffffffff168152602001600182015481526020016002820154815260200160038201548152602001600482015481526020016005820154815250509050919050565b606060035f8381526020019081526020015f205f8481526020019081526020015f20805480602002602001604051908101604052809291908181526020015f905b8282101561048f578382905f5260205f2090600502016040518060a00160405290815f82015f9054906101000a900473ffffffffffffffffffffffffffffffffffffffff1673ffffffffffffffffffffffffffffffffffffffff1673ffffffffffffffffffffffffffffffffffffffff168152602001600182015481526020016002820154815260200160038201548152602001600482015481525050815260200190600101906103e3565b50505050905092915050565b60015481565b6104a961109c565b5f60025f3373ffffffffffffffffffffffffffffffffffffffff1673ffffffffffffffffffffffffffffffffffffffff1681526020019081526020015f2090505f73ffffffffffffffffffffffffffffffffffffffff16815f015f9054906101000a900473ffffffffffffffffffffffffffffffffffffffff1673ffffffffffffffffffffffffffffffffffffffff16036105805733815f015f6101000a81548173ffffffffffffffffffffffffffffffffffffffff021916908373ffffffffffffffffffffffffffffffffffffffff1602179055505b5f81600501541115610699575f81600501544261059d9190611770565b90506201518081101580156105b557506202a3008111155b1561062a57816004015f8154809291906105ce906117a3565b91905055503373ffffffffffffffffffffffffffffffffffffffff167f46f6fe577ecfefe55b0f14f0b42ddb4c22db1fb9bade43aa02c5ef4e5439512e836004015460405161061d9190611482565b60405180910390a2610693565b6202a30081111561069257600182600401819055503373ffffffffffffffffffffffffffffffffffffffff167f46f6fe577ecfefe55b0f14f0b42ddb4c22db1fb9bade43aa02c5ef4e5439512e83600401546040516106899190611482565b60405180910390a25b5b506106a4565b600181600401819055505b428160050181905550806003015f8154809291906106c1906117a3565b919050555081816001015f8282546106d991906117ea565b9250508190555080600201548211156106f6578181600201819055505b60055f805481526020019081526020015f205f3373ffffffffffffffffffffffffffffffffffffffff1673ffffffffffffffffffffffffffffffffffffffff1681526020019081526020015f205f9054906101000a900460ff1661081a57600160055f805481526020019081526020015f205f3373ffffffffffffffffffffffffffffffffffffffff1673ffffffffffffffffffffffffffffffffffffffff1681526020019081526020015f205f6101000a81548160ff021916908315150217905550600433908060018154018082558091505060019003905f5260205f20015f9091909190916101000a81548173ffffffffffffffffffffffffffffffffffffffff021916908373ffffffffffffffffffffffffffffffffffffffff1602179055505b8160065f805481526020019081526020015f205f3373ffffffffffffffffffffffffffffffffffffffff1673ffffffffffffffffffffffffffffffffffffffff1681526020019081526020015f205f82825461087691906117ea565b925050819055505f6040518060a001604052803373ffffffffffffffffffffffffffffffffffffffff1681526020018581526020018481526020014281526020015f54815250905060035f805481526020019081526020015f205f8581526020019081526020015f2081908060018154018082558091505060019003905f5260205f2090600502015f909190919091505f820151815f015f6101000a81548173ffffffffffffffffffffffffffffffffffffffff021916908373ffffffffffffffffffffffffffffffffffffffff160217905550602082015181600101556040820151816002015560608201518160030155608082015181600401555050833373ffffffffffffffffffffffffffffffffffffffff167f04f4c0f5a4a2f0a08f6e3b4fd6a5abaa7af15961534922311add59aeef2e1d9285425f546040516109c09392919061181d565b60405180910390a350505050565b600481815481106109dd575f80fd5b905f5260205f20015f915054906101000a900473ffffffffffffffffffffffffffffffffffffffff1681565b6005602052815f5260405f20602052805f5260405f205f915091509054906101000a900460ff1681565b62093a80600154610a4491906117ea565b421015610a86576040517f08c379a0000000000000000000000000000000000000000000000000000000008152600401610a7d906118ac565b60405180910390fd5b5f80815480929190610a97906117a3565b91905055504260018190555060045f610ab09190611162565b7f5feb0a32eea801838a700102aa274f5c7217fcf79d5b869a0e702d4ea8c5642d5f54600154604051610ae49291906118ca565b60405180910390a1565b6060805f60048054905090505f600a8211610b095781610b0c565b600a5b90508067ffffffffffffffff811115610b2857610b276118f1565b5b604051908082528060200260200182016040528015610b565781602001602082028036833780820191505090505b5093508067ffffffffffffffff811115610b7357610b726118f1565b5b604051908082528060200260200182016040528015610ba15781602001602082028036833780820191505090505b5092505f8267ffffffffffffffff811115610bbf57610bbe6118f1565b5b604051908082528060200260200182016040528015610bed5781602001602082028036833780820191505090505b5090505f8367ffffffffffffffff811115610c0b57610c0a6118f1565b5b604051908082528060200260200182016040528015610c395781602001602082028036833780820191505090505b5090505f5b84811015610d835760048181548110610c5a57610c5961191e565b5b905f5260205f20015f9054906101000a900473ffffffffffffffffffffffffffffffffffffffff16838281518110610c9557610c9461191e565b5b602002602001019073ffffffffffffffffffffffffffffffffffffffff16908173ffffffffffffffffffffffffffffffffffffffff168152505060065f8981526020019081526020015f205f60048381548110610cf557610cf461191e565b5b905f5260205f20015f9054906101000a900473ffffffffffffffffffffffffffffffffffffffff1673ffffffffffffffffffffffffffffffffffffffff1673ffffffffffffffffffffffffffffffffffffffff1681526020019081526020015f2054828281518110610d6a57610d6961191e565b5b6020026020010181815250508080600101915050610c3e565b505f5b84811015610f4d575f600182610d9c91906117ea565b90505b85811015610f3f57828281518110610dba57610db961191e565b5b6020026020010151838281518110610dd557610dd461191e565b5b60200260200101511115610f32575f838381518110610df757610df661191e565b5b60200260200101519050838281518110610e1457610e1361191e565b5b6020026020010151848481518110610e2f57610e2e61191e565b5b60200260200101818152505080848381518110610e4f57610e4e61191e565b5b6020026020010181815250505f858481518110610e6f57610e6e61191e565b5b60200260200101519050858381518110610e8c57610e8b61191e565b5b6020026020010151868581518110610ea757610ea661191e565b5b602002602001019073ffffffffffffffffffffffffffffffffffffffff16908173ffffffffffffffffffffffffffffffffffffffff168152505080868481518110610ef557610ef461191e565b5b602002602001019073ffffffffffffffffffffffffffffffffffffffff16908173ffffffffffffffffffffffffffffffffffffffff168152505050505b8080600101915050610d9f565b508080600101915050610d86565b505f5b8381101561100757828181518110610f6b57610f6a61191e565b5b6020026020010151878281518110610f8657610f8561191e565b5b602002602001019073ffffffffffffffffffffffffffffffffffffffff16908173ffffffffffffffffffffffffffffffffffffffff1681525050818181518110610fd357610fd261191e565b5b6020026020010151868281518110610fee57610fed61191e565b5b6020026020010181815250508080600101915050610f50565b5050505050915091565b5f5481565b6006602052815f5260405f20602052805f5260405f205f91509150505481565b5f8054905090565b62093a8081565b6002602052805f5260405f205f91509050805f015f9054906101000a900473ffffffffffffffffffffffffffffffffffffffff16908060010154908060020154908060030154908060040154908060050154905086565b62093a806001546110ad91906117ea565b421061111a575f808154809291906110c4906117a3565b91905055504260018190555060045f6110dd9190611162565b7f5feb0a32eea801838a700102aa274f5c7217fcf79d5b869a0e702d4ea8c5642d5f546001546040516111119291906118ca565b60405180910390a15b565b6040518060c001604052805f73ffffffffffffffffffffffffffffffffffffffff1681526020015f81526020015f81526020015f81526020015f81526020015f81525090565b5080545f8255905f5260205f209081019061117d9190611180565b50565b5b80821115611197575f815f905550600101611181565b5090565b5f80fd5b5f73ffffffffffffffffffffffffffffffffffffffff82169050919050565b5f6111c88261119f565b9050919050565b6111d8816111be565b81146111e2575f80fd5b50565b5f813590506111f3816111cf565b92915050565b5f6020828403121561120e5761120d61119b565b5b5f61121b848285016111e5565b91505092915050565b61122d816111be565b82525050565b5f819050919050565b61124581611233565b82525050565b60c082015f82015161125f5f850182611224565b506020820151611272602085018261123c565b506040820151611285604085018261123c565b506060820151611298606085018261123c565b5060808201516112ab608085018261123c565b5060a08201516112be60a085018261123c565b50505050565b5f60c0820190506112d75f83018461124b565b92915050565b6112e681611233565b81146112f0575f80fd5b50565b5f81359050611301816112dd565b92915050565b5f806040838503121561131d5761131c61119b565b5b5f61132a858286016112f3565b925050602061133b858286016112f3565b9150509250929050565b5f81519050919050565b5f82825260208201905092915050565b5f819050602082019050919050565b60a082015f8201516113825f850182611224565b506020820151611395602085018261123c565b5060408201516113a8604085018261123c565b5060608201516113bb606085018261123c565b5060808201516113ce608085018261123c565b50505050565b5f6113df838361136e565b60a08301905092915050565b5f602082019050919050565b5f61140182611345565b61140b818561134f565b93506114168361135f565b805f5b8381101561144657815161142d88826113d4565b9750611438836113eb565b925050600181019050611419565b5085935050505092915050565b5f6020820190508181035f83015261146b81846113f7565b905092915050565b61147c81611233565b82525050565b5f6020820190506114955f830184611473565b92915050565b5f602082840312156114b0576114af61119b565b5b5f6114bd848285016112f3565b91505092915050565b6114cf816111be565b82525050565b5f6020820190506114e85f8301846114c6565b92915050565b5f80604083850312156115045761150361119b565b5b5f611511858286016112f3565b9250506020611522858286016111e5565b9150509250929050565b5f8115159050919050565b6115408161152c565b82525050565b5f6020820190506115595f830184611537565b92915050565b5f81519050919050565b5f82825260208201905092915050565b5f819050602082019050919050565b5f6115938383611224565b60208301905092915050565b5f602082019050919050565b5f6115b58261155f565b6115bf8185611569565b93506115ca83611579565b805f5b838110156115fa5781516115e18882611588565b97506115ec8361159f565b9250506001810190506115cd565b5085935050505092915050565b5f81519050919050565b5f82825260208201905092915050565b5f819050602082019050919050565b5f61163b838361123c565b60208301905092915050565b5f602082019050919050565b5f61165d82611607565b6116678185611611565b935061167283611621565b805f5b838110156116a25781516116898882611630565b975061169483611647565b925050600181019050611675565b5085935050505092915050565b5f6040820190508181035f8301526116c781856115ab565b905081810360208301526116db8184611653565b90509392505050565b5f60c0820190506116f75f8301896114c6565b6117046020830188611473565b6117116040830187611473565b61171e6060830186611473565b61172b6080830185611473565b61173860a0830184611473565b979650505050505050565b7f4e487b71000000000000000000000000000000000000000000000000000000005f52601160045260245ffd5b5f61177a82611233565b915061178583611233565b925082820390508181111561179d5761179c611743565b5b92915050565b5f6117ad82611233565b91507fffffffffffffffffffffffffffffffffffffffffffffffffffffffffffffffff82036117df576117de611743565b5b600182019050919050565b5f6117f482611233565b91506117ff83611233565b925082820190508082111561181757611816611743565b5b92915050565b5f6060820190506118305f830186611473565b61183d6020830185611473565b61184a6040830184611473565b949350505050565b5f82825260208201905092915050565b7f536561736f6e206e6f74206f76657200000000000000000000000000000000005f82015250565b5f611896600f83611852565b91506118a182611862565b602082019050919050565b5f6020820190508181035f8301526118c38161188a565b9050919050565b5f6040820190506118dd5f830185611473565b6118ea6020830184611473565b9392505050565b7f4e487b71000000000000000000000000000000000000000000000000000000005f52604160045260245ffd5b7f4e487b71000000000000000000000000000000000000000000000000000000005f52603260045260245ffdfea2646970667358221220dcb60027200a7f1da236f241fba856f036b5c7d9504f596e10ba84d18a39ffde64736f6c63430008180033","opcodes":"PUSH1 0x80 PUSH1 0x40 MSTORE PUSH1 0x1 PUSH0 SSTORE CALLVALUE DUP1 ISZERO PUSH2 0x13 JUMPI PUSH0 DUP1 REVERT JUMPDEST POP TIMESTAMP PUSH1 0x1 DUP2 SWAP1 SSTORE POP PUSH2 0x1981 DUP1 PUSH2 0x28 PUSH0 CODECOPY PUSH0 RETURN INVALID PUSH1 0x80 PUSH1 0x40 MSTORE CALLVALUE DUP1 ISZERO PUSH2 0xF JUMPI PUSH0 DUP1 REVERT JUMPDEST POP PUSH1 0x4 CALLDATASIZE LT PUSH2 0xCD JUMPI PUSH0 CALLDATALOAD PUSH1 0xE0 SHR DUP1 PUSH4 0xB6CEB61F GT PUSH2 0x8A JUMPI DUP1 PUSH4 0xC5D8860D GT PUSH2 0x64 JUMPI DUP1 PUSH4 0xC5D8860D EQ PUSH2 0x224 JUMPI DUP1 PUSH4 0xD3B30B75 EQ PUSH2 0x254 JUMPI DUP1 PUSH4 0xDC185E35 EQ PUSH2 0x272 JUMPI DUP1 PUSH4 0xE2EB41FF EQ PUSH2 0x290 JUMPI PUSH2 0xCD JUMP JUMPDEST DUP1 PUSH4 0xB6CEB61F EQ PUSH2 0x1CB JUMPI DUP1 PUSH4 0xBA3C0067 EQ PUSH2 0x1D5 JUMPI DUP1 PUSH4 0xBCB39621 EQ PUSH2 0x206 JUMPI PUSH2 0xCD JUMP JUMPDEST DUP1 PUSH4 0x4FD66EAE EQ PUSH2 0xD1 JUMPI DUP1 PUSH4 0x73AF16FC EQ PUSH2 0x101 JUMPI DUP1 PUSH4 0x8104AE4D EQ PUSH2 0x131 JUMPI DUP1 PUSH4 0x8358BA08 EQ PUSH2 0x14F JUMPI DUP1 PUSH4 0xA68643C1 EQ PUSH2 0x16B JUMPI DUP1 PUSH4 0xAB12D87F EQ PUSH2 0x19B JUMPI JUMPDEST PUSH0 DUP1 REVERT JUMPDEST PUSH2 0xEB PUSH1 0x4 DUP1 CALLDATASIZE SUB DUP2 ADD SWAP1 PUSH2 0xE6 SWAP2 SWAP1 PUSH2 0x11F9 JUMP JUMPDEST PUSH2 0x2C5 JUMP JUMPDEST PUSH1 0x40 MLOAD PUSH2 0xF8 SWAP2 SWAP1 PUSH2 0x12C4 JUMP JUMPDEST PUSH1 0x40 MLOAD DUP1 SWAP2 SUB SWAP1 RETURN JUMPDEST PUSH2 0x11B PUSH1 0x4 DUP1 CALLDATASIZE SUB DUP2 ADD SWAP1 PUSH2 0x116 SWAP2 SWAP1 PUSH2 0x1307 JUMP JUMPDEST PUSH2 0x3A2 JUMP JUMPDEST PUSH1 0x40 MLOAD PUSH2 0x128 SWAP2 SWAP1 PUSH2 0x1453 JUMP JUMPDEST PUSH1 0x40 MLOAD DUP1 SWAP2 SUB SWAP1 RETURN JUMPDEST PUSH2 0x139 PUSH2 0x49B JUMP JUMPDEST PUSH1 0x40 MLOAD PUSH2 0x146 SWAP2 SWAP1 PUSH2 0x1482 JUMP JUMPDEST PUSH1 0x40 MLOAD DUP1 SWAP2 SUB SWAP1 RETURN JUMPDEST PUSH2 0x169 PUSH1 0x4 DUP1 CALLDATASIZE SUB DUP2 ADD SWAP1 PUSH2 0x164 SWAP2 SWAP1 PUSH2 0x1307 JUMP JUMPDEST PUSH2 0x4A1 JUMP JUMPDEST STOP JUMPDEST PUSH2 0x185 PUSH1 0x4 DUP1 CALLDATASIZE SUB DUP2 ADD SWAP1 PUSH2 0x180 SWAP2 SWAP1 PUSH2 0x149B JUMP JUMPDEST PUSH2 0x9CE JUMP JUMPDEST PUSH1 0x40 MLOAD PUSH2 0x192 SWAP2 SWAP1 PUSH2 0x14D5 JUMP JUMPDEST PUSH1 0x40 MLOAD DUP1 SWAP2 SUB SWAP1 RETURN JUMPDEST PUSH2 0x1B5 PUSH1 0x4 DUP1 CALLDATASIZE SUB DUP2 ADD SWAP1 PUSH2 0x1B0 SWAP2 SWAP1 PUSH2 0x14EE JUMP JUMPDEST PUSH2 0xA09 JUMP JUMPDEST PUSH1 0x40 MLOAD PUSH2 0x1C2 SWAP2 SWAP1 PUSH2 0x1546 JUMP JUMPDEST PUSH1 0x40 MLOAD DUP1 SWAP2 SUB SWAP1 RETURN JUMPDEST PUSH2 0x1D3 PUSH2 0xA33 JUMP JUMPDEST STOP JUMPDEST PUSH2 0x1EF PUSH1 0x4 DUP1 CALLDATASIZE SUB DUP2 ADD SWAP1 PUSH2 0x1EA SWAP2 SWAP1 PUSH2 0x149B JUMP JUMPDEST PUSH2 0xAEE JUMP JUMPDEST PUSH1 0x40 MLOAD PUSH2 0x1FD SWAP3 SWAP2 SWAP1 PUSH2 0x16AF JUMP JUMPDEST PUSH1 0x40 MLOAD DUP1 SWAP2 SUB SWAP1 RETURN JUMPDEST PUSH2 0x20E PUSH2 0x1011 JUMP JUMPDEST PUSH1 0x40 MLOAD PUSH2 0x21B SWAP2 SWAP1 PUSH2 0x1482 JUMP JUMPDEST PUSH1 0x40 MLOAD DUP1 SWAP2 SUB SWAP1 RETURN JUMPDEST PUSH2 0x23E PUSH1 0x4 DUP1 CALLDATASIZE SUB DUP2 ADD SWAP1 PUSH2 0x239 SWAP2 SWAP1 PUSH2 0x14EE JUMP JUMPDEST PUSH2 0x1016 JUMP JUMPDEST PUSH1 0x40 MLOAD PUSH2 0x24B SWAP2 SWAP1 PUSH2 0x1482 JUMP JUMPDEST PUSH1 0x40 MLOAD DUP1 SWAP2 SUB SWAP1 RETURN JUMPDEST PUSH2 0x25C PUSH2 0x1036 JUMP JUMPDEST PUSH1 0x40 MLOAD PUSH2 0x269 SWAP2 SWAP1 PUSH2 0x1482 JUMP JUMPDEST PUSH1 0x40 MLOAD DUP1 SWAP2 SUB SWAP1 RETURN JUMPDEST PUSH2 0x27A PUSH2 0x103E JUMP JUMPDEST PUSH1 0x40 MLOAD PUSH2 0x287 SWAP2 SWAP1 PUSH2 0x1482 JUMP JUMPDEST PUSH1 0x40 MLOAD DUP1 SWAP2 SUB SWAP1 RETURN JUMPDEST PUSH2 0x2AA PUSH1 0x4 DUP1 CALLDATASIZE SUB DUP2 ADD SWAP1 PUSH2 0x2A5 SWAP2 SWAP1 PUSH2 0x11F9 JUMP JUMPDEST PUSH2 0x1045 JUMP JUMPDEST PUSH1 0x40 MLOAD PUSH2 0x2BC SWAP7 SWAP6 SWAP5 SWAP4 SWAP3 SWAP2 SWAP1 PUSH2 0x16E4 JUMP JUMPDEST PUSH1 0x40 MLOAD DUP1 SWAP2 SUB SWAP1 RETURN JUMPDEST PUSH2 0x2CD PUSH2 0x111C JUMP JUMPDEST PUSH1 0x2 PUSH0 DUP4 PUSH20 0xFFFFFFFFFFFFFFFFFFFFFFFFFFFFFFFFFFFFFFFF AND PUSH20 0xFFFFFFFFFFFFFFFFFFFFFFFFFFFFFFFFFFFFFFFF AND DUP2 MSTORE PUSH1 0x20 ADD SWAP1 DUP2 MSTORE PUSH1 0x20 ADD PUSH0 KECCAK256 PUSH1 0x40 MLOAD DUP1 PUSH1 0xC0 ADD PUSH1 0x40 MSTORE SWAP1 DUP2 PUSH0 DUP3 ADD PUSH0 SWAP1 SLOAD SWAP1 PUSH2 0x100 EXP SWAP1 DIV PUSH20 0xFFFFFFFFFFFFFFFFFFFFFFFFFFFFFFFFFFFFFFFF AND PUSH20 0xFFFFFFFFFFFFFFFFFFFFFFFFFFFFFFFFFFFFFFFF AND PUSH20 0xFFFFFFFFFFFFFFFFFFFFFFFFFFFFFFFFFFFFFFFF AND DUP2 MSTORE PUSH1 0x20 ADD PUSH1 0x1 DUP3 ADD SLOAD DUP2 MSTORE PUSH1 0x20 ADD PUSH1 0x2 DUP3 ADD SLOAD DUP2 MSTORE PUSH1 0x20 ADD PUSH1 0x3 DUP3 ADD SLOAD DUP2 MSTORE PUSH1 0x20 ADD PUSH1 0x4 DUP3 ADD SLOAD DUP2 MSTORE PUSH1 0x20 ADD PUSH1 0x5 DUP3 ADD SLOAD DUP2 MSTORE POP POP SWAP1 POP SWAP2 SWAP1 POP JUMP JUMPDEST PUSH1 0x60 PUSH1 0x3 PUSH0 DUP4 DUP2 MSTORE PUSH1 0x20 ADD SWAP1 DUP2 MSTORE PUSH1 0x20 ADD PUSH0 KECCAK256 PUSH0 DUP5 DUP2 MSTORE PUSH1 0x20 ADD SWAP1 DUP2 MSTORE PUSH1 0x20 ADD PUSH0 KECCAK256 DUP1 SLOAD DUP1 PUSH1 0x20 MUL PUSH1 0x20 ADD PUSH1 0x40 MLOAD SWAP1 DUP2 ADD PUSH1 0x40 MSTORE DUP1 SWAP3 SWAP2 SWAP1 DUP2 DUP2 MSTORE PUSH1 0x20 ADD PUSH0 SWAP1 JUMPDEST DUP3 DUP3 LT ISZERO PUSH2 0x48F JUMPI DUP4 DUP3 SWAP1 PUSH0 MSTORE PUSH1 0x20 PUSH0 KECCAK256 SWAP1 PUSH1 0x5 MUL ADD PUSH1 0x40 MLOAD DUP1 PUSH1 0xA0 ADD PUSH1 0x40 MSTORE SWAP1 DUP2 PUSH0 DUP3 ADD PUSH0 SWAP1 SLOAD SWAP1 PUSH2 0x100 EXP SWAP1 DIV PUSH20 0xFFFFFFFFFFFFFFFFFFFFFFFFFFFFFFFFFFFFFFFF AND PUSH20 0xFFFFFFFFFFFFFFFFFFFFFFFFFFFFFFFFFFFFFFFF AND PUSH20 0xFFFFFFFFFFFFFFFFFFFFFFFFFFFFFFFFFFFFFFFF AND DUP2 MSTORE PUSH1 0x20 ADD PUSH1 0x1 DUP3 ADD SLOAD DUP2 MSTORE PUSH1 0x20 ADD PUSH1 0x2 DUP3 ADD SLOAD DUP2 MSTORE PUSH1 0x20 ADD PUSH1 0x3 DUP3 ADD SLOAD DUP2 MSTORE PUSH1 0x20 ADD PUSH1 0x4 DUP3 ADD SLOAD DUP2 MSTORE POP POP DUP2 MSTORE PUSH1 0x20 ADD SWAP1 PUSH1 0x1 ADD SWAP1 PUSH2 0x3E3 JUMP JUMPDEST POP POP POP POP SWAP1 POP SWAP3 SWAP2 POP POP JUMP JUMPDEST PUSH1 0x1 SLOAD DUP2 JUMP JUMPDEST PUSH2 0x4A9 PUSH2 0x109C JUMP JUMPDEST PUSH0 PUSH1 0x2 PUSH0 CALLER PUSH20 0xFFFFFFFFFFFFFFFFFFFFFFFFFFFFFFFFFFFFFFFF AND PUSH20 0xFFFFFFFFFFFFFFFFFFFFFFFFFFFFFFFFFFFFFFFF AND DUP2 MSTORE PUSH1 0x20 ADD SWAP1 DUP2 MSTORE PUSH1 0x20 ADD PUSH0 KECCAK256 SWAP1 POP PUSH0 PUSH20 0xFFFFFFFFFFFFFFFFFFFFFFFFFFFFFFFFFFFFFFFF AND DUP2 PUSH0 ADD PUSH0 SWAP1 SLOAD SWAP1 PUSH2 0x100 EXP SWAP1 DIV PUSH20 0xFFFFFFFFFFFFFFFFFFFFFFFFFFFFFFFFFFFFFFFF AND PUSH20 0xFFFFFFFFFFFFFFFFFFFFFFFFFFFFFFFFFFFFFFFF AND SUB PUSH2 0x580 JUMPI CALLER DUP2 PUSH0 ADD PUSH0 PUSH2 0x100 EXP DUP2 SLOAD DUP2 PUSH20 0xFFFFFFFFFFFFFFFFFFFFFFFFFFFFFFFFFFFFFFFF MUL NOT AND SWAP1 DUP4 PUSH20 0xFFFFFFFFFFFFFFFFFFFFFFFFFFFFFFFFFFFFFFFF AND MUL OR SWAP1 SSTORE POP JUMPDEST PUSH0 DUP2 PUSH1 0x5 ADD SLOAD GT ISZERO PUSH2 0x699 JUMPI PUSH0 DUP2 PUSH1 0x5 ADD SLOAD TIMESTAMP PUSH2 0x59D SWAP2 SWAP1 PUSH2 0x1770 JUMP JUMPDEST SWAP1 POP PUSH3 0x15180 DUP2 LT ISZERO DUP1 ISZERO PUSH2 0x5B5 JUMPI POP PUSH3 0x2A300 DUP2 GT ISZERO JUMPDEST ISZERO PUSH2 0x62A JUMPI DUP2 PUSH1 0x4 ADD PUSH0 DUP2 SLOAD DUP1 SWAP3 SWAP2 SWAP1 PUSH2 0x5CE SWAP1 PUSH2 0x17A3 JUMP JUMPDEST SWAP2 SWAP1 POP SSTORE POP CALLER PUSH20 0xFFFFFFFFFFFFFFFFFFFFFFFFFFFFFFFFFFFFFFFF AND PUSH32 0x46F6FE577ECFEFE55B0F14F0B42DDB4C22DB1FB9BADE43AA02C5EF4E5439512E DUP4 PUSH1 0x4 ADD SLOAD PUSH1 0x40 MLOAD PUSH2 0x61D SWAP2 SWAP1 PUSH2 0x1482 JUMP JUMPDEST PUSH1 0x40 MLOAD DUP1 SWAP2 SUB SWAP1 LOG2 PUSH2 0x693 JUMP JUMPDEST PUSH3 0x2A300 DUP2 GT ISZERO PUSH2 0x692 JUMPI PUSH1 0x1 DUP3 PUSH1 0x4 ADD DUP2 SWAP1 SSTORE POP CALLER PUSH20 0xFFFFFFFFFFFFFFFFFFFFFFFFFFFFFFFFFFFFFFFF AND PUSH32 0x46F6FE577ECFEFE55B0F14F0B42DDB4C22DB1FB9BADE43AA02C5EF4E5439512E DUP4 PUSH1 0x4 ADD SLOAD PUSH1 0x40 MLOAD PUSH2 0x689 SWAP2 SWAP1 PUSH2 0x1482 JUMP JUMPDEST PUSH1 0x40 MLOAD DUP1 SWAP2 SUB SWAP1 LOG2 JUMPDEST JUMPDEST POP PUSH2 0x6A4 JUMP JUMPDEST PUSH1 0x1 DUP2 PUSH1 0x4 ADD DUP2 SWAP1 SSTORE POP JUMPDEST TIMESTAMP DUP2 PUSH1 0x5 ADD DUP2 SWAP1 SSTORE POP DUP1 PUSH1 0x3 ADD PUSH0 DUP2 SLOAD DUP1 SWAP3 SWAP2 SWAP1 PUSH2 0x6C1 SWAP1 PUSH2 0x17A3 JUMP JUMPDEST SWAP2 SWAP1 POP SSTORE POP DUP2 DUP2 PUSH1 0x1 ADD PUSH0 DUP3 DUP3 SLOAD PUSH2 0x6D9 SWAP2 SWAP1 PUSH2 0x17EA JUMP JUMPDEST SWAP3 POP POP DUP2 SWAP1 SSTORE POP DUP1 PUSH1 0x2 ADD SLOAD DUP3 GT ISZERO PUSH2 0x6F6 JUMPI DUP2 DUP2 PUSH1 0x2 ADD DUP2 SWAP1 SSTORE POP JUMPDEST PUSH1 0x5 PUSH0 DUP1 SLOAD DUP2 MSTORE PUSH1 0x20 ADD SWAP1 DUP2 MSTORE PUSH1 0x20 ADD PUSH0 KECCAK256 PUSH0 CALLER PUSH20 0xFFFFFFFFFFFFFFFFFFFFFFFFFFFFFFFFFFFFFFFF AND PUSH20 0xFFFFFFFFFFFFFFFFFFFFFFFFFFFFFFFFFFFFFFFF AND DUP2 MSTORE PUSH1 0x20 ADD SWAP1 DUP2 MSTORE PUSH1 0x20 ADD PUSH0 KECCAK256 PUSH0 SWAP1 SLOAD SWAP1 PUSH2 0x100 EXP SWAP1 DIV PUSH1 0xFF AND PUSH2 0x81A JUMPI PUSH1 0x1 PUSH1 0x5 PUSH0 DUP1 SLOAD DUP2 MSTORE PUSH1 0x20 ADD SWAP1 DUP2 MSTORE PUSH1 0x20 ADD PUSH0 KECCAK256 PUSH0 CALLER PUSH20 0xFFFFFFFFFFFFFFFFFFFFFFFFFFFFFFFFFFFFFFFF AND PUSH20 0xFFFFFFFFFFFFFFFFFFFFFFFFFFFFFFFFFFFFFFFF AND DUP2 MSTORE PUSH1 0x20 ADD SWAP1 DUP2 MSTORE PUSH1 0x20 ADD PUSH0 KECCAK256 PUSH0 PUSH2 0x100 EXP DUP2 SLOAD DUP2 PUSH1 0xFF MUL NOT AND SWAP1 DUP4 ISZERO ISZERO MUL OR SWAP1 SSTORE POP PUSH1 0x4 CALLER SWAP1 DUP1 PUSH1 0x1 DUP2 SLOAD ADD DUP1 DUP3 SSTORE DUP1 SWAP2 POP POP PUSH1 0x1 SWAP1 SUB SWAP1 PUSH0 MSTORE PUSH1 0x20 PUSH0 KECCAK256 ADD PUSH0 SWAP1 SWAP2 SWAP1 SWAP2 SWAP1 SWAP2 PUSH2 0x100 EXP DUP2 SLOAD DUP2 PUSH20 0xFFFFFFFFFFFFFFFFFFFFFFFFFFFFFFFFFFFFFFFF MUL NOT AND SWAP1 DUP4 PUSH20 0xFFFFFFFFFFFFFFFFFFFFFFFFFFFFFFFFFFFFFFFF AND MUL OR SWAP1 SSTORE POP JUMPDEST DUP2 PUSH1 0x6 PUSH0 DUP1 SLOAD DUP2 MSTORE PUSH1 0x20 ADD SWAP1 DUP2 MSTORE PUSH1 0x20 ADD PUSH0 KECCAK256 PUSH0 CALLER PUSH20 0xFFFFFFFFFFFFFFFFFFFFFFFFFFFFFFFFFFFFFFFF AND PUSH20 0xFFFFFFFFFFFFFFFFFFFFFFFFFFFFFFFFFFFFFFFF AND DUP2 MSTORE PUSH1 0x20 ADD SWAP1 DUP2 MSTORE PUSH1 0x20 ADD PUSH0 KECCAK256 PUSH0 DUP3 DUP3 SLOAD PUSH2 0x876 SWAP2 SWAP1 PUSH2 0x17EA JUMP JUMPDEST SWAP3 POP POP DUP2 SWAP1 SSTORE POP PUSH0 PUSH1 0x40 MLOAD DUP1 PUSH1 0xA0 ADD PUSH1 0x40 MSTORE DUP1 CALLER PUSH20 0xFFFFFFFFFFFFFFFFFFFFFFFFFFFFFFFFFFFFFFFF AND DUP2 MSTORE PUSH1 0x20 ADD DUP6 DUP2 MSTORE PUSH1 0x20 ADD DUP5 DUP2 MSTORE PUSH1 0x20 ADD TIMESTAMP DUP2 MSTORE PUSH1 0x20 ADD PUSH0 SLOAD DUP2 MSTORE POP SWAP1 POP PUSH1 0x3 PUSH0 DUP1 SLOAD DUP2 MSTORE PUSH1 0x20 ADD SWAP1 DUP2 MSTORE PUSH1 0x20 ADD PUSH0 KECCAK256 PUSH0 DUP6 DUP2 MSTORE PUSH1 0x20 ADD SWAP1 DUP2 MSTORE PUSH1 0x20 ADD PUSH0 KECCAK256 DUP2 SWAP1 DUP1 PUSH1 0x1 DUP2 SLOAD ADD DUP1 DUP3 SSTORE DUP1 SWAP2 POP POP PUSH1 0x1 SWAP1 SUB SWAP1 PUSH0 MSTORE PUSH1 0x20 PUSH0 KECCAK256 SWAP1 PUSH1 0x5 MUL ADD PUSH0 SWAP1 SWAP2 SWAP1 SWAP2 SWAP1 SWAP2 POP PUSH0 DUP3 ADD MLOAD DUP2 PUSH0 ADD PUSH0 PUSH2 0x100 EXP DUP2 SLOAD DUP2 PUSH20 0xFFFFFFFFFFFFFFFFFFFFFFFFFFFFFFFFFFFFFFFF MUL NOT AND SWAP1 DUP4 PUSH20 0xFFFFFFFFFFFFFFFFFFFFFFFFFFFFFFFFFFFFFFFF AND MUL OR SWAP1 SSTORE POP PUSH1 0x20 DUP3 ADD MLOAD DUP2 PUSH1 0x1 ADD SSTORE PUSH1 0x40 DUP3 ADD MLOAD DUP2 PUSH1 0x2 ADD SSTORE PUSH1 0x60 DUP3 ADD MLOAD DUP2 PUSH1 0x3 ADD SSTORE PUSH1 0x80 DUP3 ADD MLOAD DUP2 PUSH1 0x4 ADD SSTORE POP POP DUP4 CALLER PUSH20 0xFFFFFFFFFFFFFFFFFFFFFFFFFFFFFFFFFFFFFFFF AND PUSH32 0x4F4C0F5A4A2F0A08F6E3B4FD6A5ABAA7AF15961534922311ADD59AEEF2E1D92 DUP6 TIMESTAMP PUSH0 SLOAD PUSH1 0x40 MLOAD PUSH2 0x9C0 SWAP4 SWAP3 SWAP2 SWAP1 PUSH2 0x181D JUMP JUMPDEST PUSH1 0x40 MLOAD DUP1 SWAP2 SUB SWAP1 LOG3 POP POP POP POP JUMP JUMPDEST PUSH1 0x4 DUP2 DUP2 SLOAD DUP2 LT PUSH2 0x9DD JUMPI PUSH0 DUP1 REVERT JUMPDEST SWAP1 PUSH0 MSTORE PUSH1 0x20 PUSH0 KECCAK256 ADD PUSH0 SWAP2 POP SLOAD SWAP1 PUSH2 0x100 EXP SWAP1 DIV PUSH20 0xFFFFFFFFFFFFFFFFFFFFFFFFFFFFFFFFFFFFFFFF AND DUP2 JUMP JUMPDEST PUSH1 0x5 PUSH1 0x20 MSTORE DUP2 PUSH0 MSTORE PUSH1 0x40 PUSH0 KECCAK256 PUSH1 0x20 MSTORE DUP1 PUSH0 MSTORE PUSH1 0x40 PUSH0 KECCAK256 PUSH0 SWAP2 POP SWAP2 POP SWAP1 SLOAD SWAP1 PUSH2 0x100 EXP SWAP1 DIV PUSH1 0xFF AND DUP2 JUMP JUMPDEST PUSH3 0x93A80 PUSH1 0x1 SLOAD PUSH2 0xA44 SWAP2 SWAP1 PUSH2 0x17EA JUMP JUMPDEST TIMESTAMP LT ISZERO PUSH2 0xA86 JUMPI PUSH1 0x40 MLOAD PUSH32 0x8C379A000000000000000000000000000000000000000000000000000000000 DUP2 MSTORE PUSH1 0x4 ADD PUSH2 0xA7D SWAP1 PUSH2 0x18AC JUMP JUMPDEST PUSH1 0x40 MLOAD DUP1 SWAP2 SUB SWAP1 REVERT JUMPDEST PUSH0 DUP1 DUP2 SLOAD DUP1 SWAP3 SWAP2 SWAP1 PUSH2 0xA97 SWAP1 PUSH2 0x17A3 JUMP JUMPDEST SWAP2 SWAP1 POP SSTORE POP TIMESTAMP PUSH1 0x1 DUP2 SWAP1 SSTORE POP PUSH1 0x4 PUSH0 PUSH2 0xAB0 SWAP2 SWAP1 PUSH2 0x1162 JUMP JUMPDEST PUSH32 0x5FEB0A32EEA801838A700102AA274F5C7217FCF79D5B869A0E702D4EA8C5642D PUSH0 SLOAD PUSH1 0x1 SLOAD PUSH1 0x40 MLOAD PUSH2 0xAE4 SWAP3 SWAP2 SWAP1 PUSH2 0x18CA JUMP JUMPDEST PUSH1 0x40 MLOAD DUP1 SWAP2 SUB SWAP1 LOG1 JUMP JUMPDEST PUSH1 0x60 DUP1 PUSH0 PUSH1 0x4 DUP1 SLOAD SWAP1 POP SWAP1 POP PUSH0 PUSH1 0xA DUP3 GT PUSH2 0xB09 JUMPI DUP2 PUSH2 0xB0C JUMP JUMPDEST PUSH1 0xA JUMPDEST SWAP1 POP DUP1 PUSH8 0xFFFFFFFFFFFFFFFF DUP2 GT ISZERO PUSH2 0xB28 JUMPI PUSH2 0xB27 PUSH2 0x18F1 JUMP JUMPDEST JUMPDEST PUSH1 0x40 MLOAD SWAP1 DUP1 DUP3 MSTORE DUP1 PUSH1 0x20 MUL PUSH1 0x20 ADD DUP3 ADD PUSH1 0x40 MSTORE DUP1 ISZERO PUSH2 0xB56 JUMPI DUP2 PUSH1 0x20 ADD PUSH1 0x20 DUP3 MUL DUP1 CALLDATASIZE DUP4 CALLDATACOPY DUP1 DUP3 ADD SWAP2 POP POP SWAP1 POP JUMPDEST POP SWAP4 POP DUP1 PUSH8 0xFFFFFFFFFFFFFFFF DUP2 GT ISZERO PUSH2 0xB73 JUMPI PUSH2 0xB72 PUSH2 0x18F1 JUMP JUMPDEST JUMPDEST PUSH1 0x40 MLOAD SWAP1 DUP1 DUP3 MSTORE DUP1 PUSH1 0x20 MUL PUSH1 0x20 ADD DUP3 ADD PUSH1 0x40 MSTORE DUP1 ISZERO PUSH2 0xBA1 JUMPI DUP2 PUSH1 0x20 ADD PUSH1 0x20 DUP3 MUL DUP1 CALLDATASIZE DUP4 CALLDATACOPY DUP1 DUP3 ADD SWAP2 POP POP SWAP1 POP JUMPDEST POP SWAP3 POP PUSH0 DUP3 PUSH8 0xFFFFFFFFFFFFFFFF DUP2 GT ISZERO PUSH2 0xBBF JUMPI PUSH2 0xBBE PUSH2 0x18F1 JUMP JUMPDEST JUMPDEST PUSH1 0x40 MLOAD SWAP1 DUP1 DUP3 MSTORE DUP1 PUSH1 0x20 MUL PUSH1 0x20 ADD DUP3 ADD PUSH1 0x40 MSTORE DUP1 ISZERO PUSH2 0xBED JUMPI DUP2 PUSH1 0x20 ADD PUSH1 0x20 DUP3 MUL DUP1 CALLDATASIZE DUP4 CALLDATACOPY DUP1 DUP3 ADD SWAP2 POP POP SWAP1 POP JUMPDEST POP SWAP1 POP PUSH0 DUP4 PUSH8 0xFFFFFFFFFFFFFFFF DUP2 GT ISZERO PUSH2 0xC0B JUMPI PUSH2 0xC0A PUSH2 0x18F1 JUMP JUMPDEST JUMPDEST PUSH1 0x40 MLOAD SWAP1 DUP1 DUP3 MSTORE DUP1 PUSH1 0x20 MUL PUSH1 0x20 ADD DUP3 ADD PUSH1 0x40 MSTORE DUP1 ISZERO PUSH2 0xC39 JUMPI DUP2 PUSH1 0x20 ADD PUSH1 0x20 DUP3 MUL DUP1 CALLDATASIZE DUP4 CALLDATACOPY DUP1 DUP3 ADD SWAP2 POP POP SWAP1 POP JUMPDEST POP SWAP1 POP PUSH0 JUMPDEST DUP5 DUP2 LT ISZERO PUSH2 0xD83 JUMPI PUSH1 0x4 DUP2 DUP2 SLOAD DUP2 LT PUSH2 0xC5A JUMPI PUSH2 0xC59 PUSH2 0x191E JUMP JUMPDEST JUMPDEST SWAP1 PUSH0 MSTORE PUSH1 0x20 PUSH0 KECCAK256 ADD PUSH0 SWAP1 SLOAD SWAP1 PUSH2 0x100 EXP SWAP1 DIV PUSH20 0xFFFFFFFFFFFFFFFFFFFFFFFFFFFFFFFFFFFFFFFF AND DUP4 DUP3 DUP2 MLOAD DUP2 LT PUSH2 0xC95 JUMPI PUSH2 0xC94 PUSH2 0x191E JUMP JUMPDEST JUMPDEST PUSH1 0x20 MUL PUSH1 0x20 ADD ADD SWAP1 PUSH20 0xFFFFFFFFFFFFFFFFFFFFFFFFFFFFFFFFFFFFFFFF AND SWAP1 DUP2 PUSH20 0xFFFFFFFFFFFFFFFFFFFFFFFFFFFFFFFFFFFFFFFF AND DUP2 MSTORE POP POP PUSH1 0x6 PUSH0 DUP10 DUP2 MSTORE PUSH1 0x20 ADD SWAP1 DUP2 MSTORE PUSH1 0x20 ADD PUSH0 KECCAK256 PUSH0 PUSH1 0x4 DUP4 DUP2 SLOAD DUP2 LT PUSH2 0xCF5 JUMPI PUSH2 0xCF4 PUSH2 0x191E JUMP JUMPDEST JUMPDEST SWAP1 PUSH0 MSTORE PUSH1 0x20 PUSH0 KECCAK256 ADD PUSH0 SWAP1 SLOAD SWAP1 PUSH2 0x100 EXP SWAP1 DIV PUSH20 0xFFFFFFFFFFFFFFFFFFFFFFFFFFFFFFFFFFFFFFFF AND PUSH20 0xFFFFFFFFFFFFFFFFFFFFFFFFFFFFFFFFFFFFFFFF AND PUSH20 0xFFFFFFFFFFFFFFFFFFFFFFFFFFFFFFFFFFFFFFFF AND DUP2 MSTORE PUSH1 0x20 ADD SWAP1 DUP2 MSTORE PUSH1 0x20 ADD PUSH0 KECCAK256 SLOAD DUP3 DUP3 DUP2 MLOAD DUP2 LT PUSH2 0xD6A JUMPI PUSH2 0xD69 PUSH2 0x191E JUMP JUMPDEST JUMPDEST PUSH1 0x20 MUL PUSH1 0x20 ADD ADD DUP2 DUP2 MSTORE POP POP DUP1 DUP1 PUSH1 0x1 ADD SWAP2 POP POP PUSH2 0xC3E JUMP JUMPDEST POP PUSH0 JUMPDEST DUP5 DUP2 LT ISZERO PUSH2 0xF4D JUMPI PUSH0 PUSH1 0x1 DUP3 PUSH2 0xD9C SWAP2 SWAP1 PUSH2 0x17EA JUMP JUMPDEST SWAP1 POP JUMPDEST DUP6 DUP2 LT ISZERO PUSH2 0xF3F JUMPI DUP3 DUP3 DUP2 MLOAD DUP2 LT PUSH2 0xDBA JUMPI PUSH2 0xDB9 PUSH2 0x191E JUMP JUMPDEST JUMPDEST PUSH1 0x20 MUL PUSH1 0x20 ADD ADD MLOAD DUP4 DUP3 DUP2 MLOAD DUP2 LT PUSH2 0xDD5 JUMPI PUSH2 0xDD4 PUSH2 0x191E JUMP JUMPDEST JUMPDEST PUSH1 0x20 MUL PUSH1 0x20 ADD ADD MLOAD GT ISZERO PUSH2 0xF32 JUMPI PUSH0 DUP4 DUP4 DUP2 MLOAD DUP2 LT PUSH2 0xDF7 JUMPI PUSH2 0xDF6 PUSH2 0x191E JUMP JUMPDEST JUMPDEST PUSH1 0x20 MUL PUSH1 0x20 ADD ADD MLOAD SWAP1 POP DUP4 DUP3 DUP2 MLOAD DUP2 LT PUSH2 0xE14 JUMPI PUSH2 0xE13 PUSH2 0x191E JUMP JUMPDEST JUMPDEST PUSH1 0x20 MUL PUSH1 0x20 ADD ADD MLOAD DUP5 DUP5 DUP2 MLOAD DUP2 LT PUSH2 0xE2F JUMPI PUSH2 0xE2E PUSH2 0x191E JUMP JUMPDEST JUMPDEST PUSH1 0x20 MUL PUSH1 0x20 ADD ADD DUP2 DUP2 MSTORE POP POP DUP1 DUP5 DUP4 DUP2 MLOAD DUP2 LT PUSH2 0xE4F JUMPI PUSH2 0xE4E PUSH2 0x191E JUMP JUMPDEST JUMPDEST PUSH1 0x20 MUL PUSH1 0x20 ADD ADD DUP2 DUP2 MSTORE POP POP PUSH0 DUP6 DUP5 DUP2 MLOAD DUP2 LT PUSH2 0xE6F JUMPI PUSH2 0xE6E PUSH2 0x191E JUMP JUMPDEST JUMPDEST PUSH1 0x20 MUL PUSH1 0x20 ADD ADD MLOAD SWAP1 POP DUP6 DUP4 DUP2 MLOAD DUP2 LT PUSH2 0xE8C JUMPI PUSH2 0xE8B PUSH2 0x191E JUMP JUMPDEST JUMPDEST PUSH1 0x20 MUL PUSH1 0x20 ADD ADD MLOAD DUP7 DUP6 DUP2 MLOAD DUP2 LT PUSH2 0xEA7 JUMPI PUSH2 0xEA6 PUSH2 0x191E JUMP JUMPDEST JUMPDEST PUSH1 0x20 MUL PUSH1 0x20 ADD ADD SWAP1 PUSH20 0xFFFFFFFFFFFFFFFFFFFFFFFFFFFFFFFFFFFFFFFF AND SWAP1 DUP2 PUSH20 0xFFFFFFFFFFFFFFFFFFFFFFFFFFFFFFFFFFFFFFFF AND DUP2 MSTORE POP POP DUP1 DUP7 DUP5 DUP2 MLOAD DUP2 LT PUSH2 0xEF5 JUMPI PUSH2 0xEF4 PUSH2 0x191E JUMP JUMPDEST JUMPDEST PUSH1 0x20 MUL PUSH1 0x20 ADD ADD SWAP1 PUSH20 0xFFFFFFFFFFFFFFFFFFFFFFFFFFFFFFFFFFFFFFFF AND SWAP1 DUP2 PUSH20 0xFFFFFFFFFFFFFFFFFFFFFFFFFFFFFFFFFFFFFFFF AND DUP2 MSTORE POP POP POP POP JUMPDEST DUP1 DUP1 PUSH1 0x1 ADD SWAP2 POP POP PUSH2 0xD9F JUMP JUMPDEST POP DUP1 DUP1 PUSH1 0x1 ADD SWAP2 POP POP PUSH2 0xD86 JUMP JUMPDEST POP PUSH0 JUMPDEST DUP4 DUP2 LT ISZERO PUSH2 0x1007 JUMPI DUP3 DUP2 DUP2 MLOAD DUP2 LT PUSH2 0xF6B JUMPI PUSH2 0xF6A PUSH2 0x191E JUMP JUMPDEST JUMPDEST PUSH1 0x20 MUL PUSH1 0x20 ADD ADD MLOAD DUP8 DUP3 DUP2 MLOAD DUP2 LT PUSH2 0xF86 JUMPI PUSH2 0xF85 PUSH2 0x191E JUMP JUMPDEST JUMPDEST PUSH1 0x20 MUL PUSH1 0x20 ADD ADD SWAP1 PUSH20 0xFFFFFFFFFFFFFFFFFFFFFFFFFFFFFFFFFFFFFFFF AND SWAP1 DUP2 PUSH20 0xFFFFFFFFFFFFFFFFFFFFFFFFFFFFFFFFFFFFFFFF AND DUP2 MSTORE POP POP DUP2 DUP2 DUP2 MLOAD DUP2 LT PUSH2 0xFD3 JUMPI PUSH2 0xFD2 PUSH2 0x191E JUMP JUMPDEST JUMPDEST PUSH1 0x20 MUL PUSH1 0x20 ADD ADD MLOAD DUP7 DUP3 DUP2 MLOAD DUP2 LT PUSH2 0xFEE JUMPI PUSH2 0xFED PUSH2 0x191E JUMP JUMPDEST JUMPDEST PUSH1 0x20 MUL PUSH1 0x20 ADD ADD DUP2 DUP2 MSTORE POP POP DUP1 DUP1 PUSH1 0x1 ADD SWAP2 POP POP PUSH2 0xF50 JUMP JUMPDEST POP POP POP POP POP SWAP2 POP SWAP2 JUMP JUMPDEST PUSH0 SLOAD DUP2 JUMP JUMPDEST PUSH1 0x6 PUSH1 0x20 MSTORE DUP2 PUSH0 MSTORE PUSH1 0x40 PUSH0 KECCAK256 PUSH1 0x20 MSTORE DUP1 PUSH0 MSTORE PUSH1 0x40 PUSH0 KECCAK256 PUSH0 SWAP2 POP SWAP2 POP POP SLOAD DUP2 JUMP JUMPDEST PUSH0 DUP1 SLOAD SWAP1 POP SWAP1 JUMP JUMPDEST PUSH3 0x93A80 DUP2 JUMP JUMPDEST PUSH1 0x2 PUSH1 0x20 MSTORE DUP1 PUSH0 MSTORE PUSH1 0x40 PUSH0 KECCAK256 PUSH0 SWAP2 POP SWAP1 POP DUP1 PUSH0 ADD PUSH0 SWAP1 SLOAD SWAP1 PUSH2 0x100 EXP SWAP1 DIV PUSH20 0xFFFFFFFFFFFFFFFFFFFFFFFFFFFFFFFFFFFFFFFF AND SWAP1 DUP1 PUSH1 0x1 ADD SLOAD SWAP1 DUP1 PUSH1 0x2 ADD SLOAD SWAP1 DUP1 PUSH1 0x3 ADD SLOAD SWAP1 DUP1 PUSH1 0x4 ADD SLOAD SWAP1 DUP1 PUSH1 0x5 ADD SLOAD SWAP1 POP DUP7 JUMP JUMPDEST PUSH3 0x93A80 PUSH1 0x1 SLOAD PUSH2 0x10AD SWAP2 SWAP1 PUSH2 0x17EA JUMP JUMPDEST TIMESTAMP LT PUSH2 0x111A JUMPI PUSH0 DUP1 DUP2 SLOAD DUP1 SWAP3 SWAP2 SWAP1 PUSH2 0x10C4 SWAP1 PUSH2 0x17A3 JUMP JUMPDEST SWAP2 SWAP1 POP SSTORE POP TIMESTAMP PUSH1 0x1 DUP2 SWAP1 SSTORE POP PUSH1 0x4 PUSH0 PUSH2 0x10DD SWAP2 SWAP1 PUSH2 0x1162 JUMP JUMPDEST PUSH32 0x5FEB0A32EEA801838A700102AA274F5C7217FCF79D5B869A0E702D4EA8C5642D PUSH0 SLOAD PUSH1 0x1 SLOAD PUSH1 0x40 MLOAD PUSH2 0x1111 SWAP3 SWAP2 SWAP1 PUSH2 0x18CA JUMP JUMPDEST PUSH1 0x40 MLOAD DUP1 SWAP2 SUB SWAP1 LOG1 JUMPDEST JUMP JUMPDEST PUSH1 0x40 MLOAD DUP1 PUSH1 0xC0 ADD PUSH1 0x40 MSTORE DUP1 PUSH0 PUSH20 0xFFFFFFFFFFFFFFFFFFFFFFFFFFFFFFFFFFFFFFFF AND DUP2 MSTORE PUSH1 0x20 ADD PUSH0 DUP2 MSTORE PUSH1 0x20 ADD PUSH0 DUP2 MSTORE PUSH1 0x20 ADD PUSH0 DUP2 MSTORE PUSH1 0x20 ADD PUSH0 DUP2 MSTORE PUSH1 0x20 ADD PUSH0 DUP2 MSTORE POP SWAP1 JUMP JUMPDEST POP DUP1 SLOAD PUSH0 DUP3 SSTORE SWAP1 PUSH0 MSTORE PUSH1 0x20 PUSH0 KECCAK256 SWAP1 DUP2 ADD SWAP1 PUSH2 0x117D SWAP2 SWAP1 PUSH2 0x1180 JUMP JUMPDEST POP JUMP JUMPDEST JUMPDEST DUP1 DUP3 GT ISZERO PUSH2 0x1197 JUMPI PUSH0 DUP2 PUSH0 SWAP1 SSTORE POP PUSH1 0x1 ADD PUSH2 0x1181 JUMP JUMPDEST POP SWAP1 JUMP JUMPDEST PUSH0 DUP1 REVERT JUMPDEST PUSH0 PUSH20 0xFFFFFFFFFFFFFFFFFFFFFFFFFFFFFFFFFFFFFFFF DUP3 AND SWAP1 POP SWAP2 SWAP1 POP JUMP JUMPDEST PUSH0 PUSH2 0x11C8 DUP3 PUSH2 0x119F JUMP JUMPDEST SWAP1 POP SWAP2 SWAP1 POP JUMP JUMPDEST PUSH2 0x11D8 DUP2 PUSH2 0x11BE JUMP JUMPDEST DUP2 EQ PUSH2 0x11E2 JUMPI PUSH0 DUP1 REVERT JUMPDEST POP JUMP JUMPDEST PUSH0 DUP2 CALLDATALOAD SWAP1 POP PUSH2 0x11F3 DUP2 PUSH2 0x11CF JUMP JUMPDEST SWAP3 SWAP2 POP POP JUMP JUMPDEST PUSH0 PUSH1 0x20 DUP3 DUP5 SUB SLT ISZERO PUSH2 0x120E JUMPI PUSH2 0x120D PUSH2 0x119B JUMP JUMPDEST JUMPDEST PUSH0 PUSH2 0x121B DUP5 DUP3 DUP6 ADD PUSH2 0x11E5 JUMP JUMPDEST SWAP2 POP POP SWAP3 SWAP2 POP POP JUMP JUMPDEST PUSH2 0x122D DUP2 PUSH2 0x11BE JUMP JUMPDEST DUP3 MSTORE POP POP JUMP JUMPDEST PUSH0 DUP2 SWAP1 POP SWAP2 SWAP1 POP JUMP JUMPDEST PUSH2 0x1245 DUP2 PUSH2 0x1233 JUMP JUMPDEST DUP3 MSTORE POP POP JUMP JUMPDEST PUSH1 0xC0 DUP3 ADD PUSH0 DUP3 ADD MLOAD PUSH2 0x125F PUSH0 DUP6 ADD DUP3 PUSH2 0x1224 JUMP JUMPDEST POP PUSH1 0x20 DUP3 ADD MLOAD PUSH2 0x1272 PUSH1 0x20 DUP6 ADD DUP3 PUSH2 0x123C JUMP JUMPDEST POP PUSH1 0x40 DUP3 ADD MLOAD PUSH2 0x1285 PUSH1 0x40 DUP6 ADD DUP3 PUSH2 0x123C JUMP JUMPDEST POP PUSH1 0x60 DUP3 ADD MLOAD PUSH2 0x1298 PUSH1 0x60 DUP6 ADD DUP3 PUSH2 0x123C JUMP JUMPDEST POP PUSH1 0x80 DUP3 ADD MLOAD PUSH2 0x12AB PUSH1 0x80 DUP6 ADD DUP3 PUSH2 0x123C JUMP JUMPDEST POP PUSH1 0xA0 DUP3 ADD MLOAD PUSH2 0x12BE PUSH1 0xA0 DUP6 ADD DUP3 PUSH2 0x123C JUMP JUMPDEST POP POP POP POP JUMP JUMPDEST PUSH0 PUSH1 0xC0 DUP3 ADD SWAP1 POP PUSH2 0x12D7 PUSH0 DUP4 ADD DUP5 PUSH2 0x124B JUMP JUMPDEST SWAP3 SWAP2 POP POP JUMP JUMPDEST PUSH2 0x12E6 DUP2 PUSH2 0x1233 JUMP JUMPDEST DUP2 EQ PUSH2 0x12F0 JUMPI PUSH0 DUP1 REVERT JUMPDEST POP JUMP JUMPDEST PUSH0 DUP2 CALLDATALOAD SWAP1 POP PUSH2 0x1301 DUP2 PUSH2 0x12DD JUMP JUMPDEST SWAP3 SWAP2 POP POP JUMP JUMPDEST PUSH0 DUP1 PUSH1 0x40 DUP4 DUP6 SUB SLT ISZERO PUSH2 0x131D JUMPI PUSH2 0x131C PUSH2 0x119B JUMP JUMPDEST JUMPDEST PUSH0 PUSH2 0x132A DUP6 DUP3 DUP7 ADD PUSH2 0x12F3 JUMP JUMPDEST SWAP3 POP POP PUSH1 0x20 PUSH2 0x133B DUP6 DUP3 DUP7 ADD PUSH2 0x12F3 JUMP JUMPDEST SWAP2 POP POP SWAP3 POP SWAP3 SWAP1 POP JUMP JUMPDEST PUSH0 DUP2 MLOAD SWAP1 POP SWAP2 SWAP1 POP JUMP JUMPDEST PUSH0 DUP3 DUP3 MSTORE PUSH1 0x20 DUP3 ADD SWAP1 POP SWAP3 SWAP2 POP POP JUMP JUMPDEST PUSH0 DUP2 SWAP1 POP PUSH1 0x20 DUP3 ADD SWAP1 POP SWAP2 SWAP1 POP JUMP JUMPDEST PUSH1 0xA0 DUP3 ADD PUSH0 DUP3 ADD MLOAD PUSH2 0x1382 PUSH0 DUP6 ADD DUP3 PUSH2 0x1224 JUMP JUMPDEST POP PUSH1 0x20 DUP3 ADD MLOAD PUSH2 0x1395 PUSH1 0x20 DUP6 ADD DUP3 PUSH2 0x123C JUMP JUMPDEST POP PUSH1 0x40 DUP3 ADD MLOAD PUSH2 0x13A8 PUSH1 0x40 DUP6 ADD DUP3 PUSH2 0x123C JUMP JUMPDEST POP PUSH1 0x60 DUP3 ADD MLOAD PUSH2 0x13BB PUSH1 0x60 DUP6 ADD DUP3 PUSH2 0x123C JUMP JUMPDEST POP PUSH1 0x80 DUP3 ADD MLOAD PUSH2 0x13CE PUSH1 0x80 DUP6 ADD DUP3 PUSH2 0x123C JUMP JUMPDEST POP POP POP POP JUMP JUMPDEST PUSH0 PUSH2 0x13DF DUP4 DUP4 PUSH2 0x136E JUMP JUMPDEST PUSH1 0xA0 DUP4 ADD SWAP1 POP SWAP3 SWAP2 POP POP JUMP JUMPDEST PUSH0 PUSH1 0x20 DUP3 ADD SWAP1 POP SWAP2 SWAP1 POP JUMP JUMPDEST PUSH0 PUSH2 0x1401 DUP3 PUSH2 0x1345 JUMP JUMPDEST PUSH2 0x140B DUP2 DUP6 PUSH2 0x134F JUMP JUMPDEST SWAP4 POP PUSH2 0x1416 DUP4 PUSH2 0x135F JUMP JUMPDEST DUP1 PUSH0 JUMPDEST DUP4 DUP2 LT ISZERO PUSH2 0x1446 JUMPI DUP2 MLOAD PUSH2 0x142D DUP9 DUP3 PUSH2 0x13D4 JUMP JUMPDEST SWAP8 POP PUSH2 0x1438 DUP4 PUSH2 0x13EB JUMP JUMPDEST SWAP3 POP POP PUSH1 0x1 DUP2 ADD SWAP1 POP PUSH2 0x1419 JUMP JUMPDEST POP DUP6 SWAP4 POP POP POP POP SWAP3 SWAP2 POP POP JUMP JUMPDEST PUSH0 PUSH1 0x20 DUP3 ADD SWAP1 POP DUP2 DUP2 SUB PUSH0 DUP4 ADD MSTORE PUSH2 0x146B DUP2 DUP5 PUSH2 0x13F7 JUMP JUMPDEST SWAP1 POP SWAP3 SWAP2 POP POP JUMP JUMPDEST PUSH2 0x147C DUP2 PUSH2 0x1233 JUMP JUMPDEST DUP3 MSTORE POP POP JUMP JUMPDEST PUSH0 PUSH1 0x20 DUP3 ADD SWAP1 POP PUSH2 0x1495 PUSH0 DUP4 ADD DUP5 PUSH2 0x1473 JUMP JUMPDEST SWAP3 SWAP2 POP POP JUMP JUMPDEST PUSH0 PUSH1 0x20 DUP3 DUP5 SUB SLT ISZERO PUSH2 0x14B0 JUMPI PUSH2 0x14AF PUSH2 0x119B JUMP JUMPDEST JUMPDEST PUSH0 PUSH2 0x14BD DUP5 DUP3 DUP6 ADD PUSH2 0x12F3 JUMP JUMPDEST SWAP2 POP POP SWAP3 SWAP2 POP POP JUMP JUMPDEST PUSH2 0x14CF DUP2 PUSH2 0x11BE JUMP JUMPDEST DUP3 MSTORE POP POP JUMP JUMPDEST PUSH0 PUSH1 0x20 DUP3 ADD SWAP1 POP PUSH2 0x14E8 PUSH0 DUP4 ADD DUP5 PUSH2 0x14C6 JUMP JUMPDEST SWAP3 SWAP2 POP POP JUMP JUMPDEST PUSH0 DUP1 PUSH1 0x40 DUP4 DUP6 SUB SLT ISZERO PUSH2 0x1504 JUMPI PUSH2 0x1503 PUSH2 0x119B JUMP JUMPDEST JUMPDEST PUSH0 PUSH2 0x1511 DUP6 DUP3 DUP7 ADD PUSH2 0x12F3 JUMP JUMPDEST SWAP3 POP POP PUSH1 0x20 PUSH2 0x1522 DUP6 DUP3 DUP7 ADD PUSH2 0x11E5 JUMP JUMPDEST SWAP2 POP POP SWAP3 POP SWAP3 SWAP1 POP JUMP JUMPDEST PUSH0 DUP2 ISZERO ISZERO SWAP1 POP SWAP2 SWAP1 POP JUMP JUMPDEST PUSH2 0x1540 DUP2 PUSH2 0x152C JUMP JUMPDEST DUP3 MSTORE POP POP JUMP JUMPDEST PUSH0 PUSH1 0x20 DUP3 ADD SWAP1 POP PUSH2 0x1559 PUSH0 DUP4 ADD DUP5 PUSH2 0x1537 JUMP JUMPDEST SWAP3 SWAP2 POP POP JUMP JUMPDEST PUSH0 DUP2 MLOAD SWAP1 POP SWAP2 SWAP1 POP JUMP JUMPDEST PUSH0 DUP3 DUP3 MSTORE PUSH1 0x20 DUP3 ADD SWAP1 POP SWAP3 SWAP2 POP POP JUMP JUMPDEST PUSH0 DUP2 SWAP1 POP PUSH1 0x20 DUP3 ADD SWAP1 POP SWAP2 SWAP1 POP JUMP JUMPDEST PUSH0 PUSH2 0x1593 DUP4 DUP4 PUSH2 0x1224 JUMP JUMPDEST PUSH1 0x20 DUP4 ADD SWAP1 POP SWAP3 SWAP2 POP POP JUMP JUMPDEST PUSH0 PUSH1 0x20 DUP3 ADD SWAP1 POP SWAP2 SWAP1 POP JUMP JUMPDEST PUSH0 PUSH2 0x15B5 DUP3 PUSH2 0x155F JUMP JUMPDEST PUSH2 0x15BF DUP2 DUP6 PUSH2 0x1569 JUMP JUMPDEST SWAP4 POP PUSH2 0x15CA DUP4 PUSH2 0x1579 JUMP JUMPDEST DUP1 PUSH0 JUMPDEST DUP4 DUP2 LT ISZERO PUSH2 0x15FA JUMPI DUP2 MLOAD PUSH2 0x15E1 DUP9 DUP3 PUSH2 0x1588 JUMP JUMPDEST SWAP8 POP PUSH2 0x15EC DUP4 PUSH2 0x159F JUMP JUMPDEST SWAP3 POP POP PUSH1 0x1 DUP2 ADD SWAP1 POP PUSH2 0x15CD JUMP JUMPDEST POP DUP6 SWAP4 POP POP POP POP SWAP3 SWAP2 POP POP JUMP JUMPDEST PUSH0 DUP2 MLOAD SWAP1 POP SWAP2 SWAP1 POP JUMP JUMPDEST PUSH0 DUP3 DUP3 MSTORE PUSH1 0x20 DUP3 ADD SWAP1 POP SWAP3 SWAP2 POP POP JUMP JUMPDEST PUSH0 DUP2 SWAP1 POP PUSH1 0x20 DUP3 ADD SWAP1 POP SWAP2 SWAP1 POP JUMP JUMPDEST PUSH0 PUSH2 0x163B DUP4 DUP4 PUSH2 0x123C JUMP JUMPDEST PUSH1 0x20 DUP4 ADD SWAP1 POP SWAP3 SWAP2 POP POP JUMP JUMPDEST PUSH0 PUSH1 0x20 DUP3 ADD SWAP1 POP SWAP2 SWAP1 POP JUMP JUMPDEST PUSH0 PUSH2 0x165D DUP3 PUSH2 0x1607 JUMP JUMPDEST PUSH2 0x1667 DUP2 DUP6 PUSH2 0x1611 JUMP JUMPDEST SWAP4 POP PUSH2 0x1672 DUP4 PUSH2 0x1621 JUMP JUMPDEST DUP1 PUSH0 JUMPDEST DUP4 DUP2 LT ISZERO PUSH2 0x16A2 JUMPI DUP2 MLOAD PUSH2 0x1689 DUP9 DUP3 PUSH2 0x1630 JUMP JUMPDEST SWAP8 POP PUSH2 0x1694 DUP4 PUSH2 0x1647 JUMP JUMPDEST SWAP3 POP POP PUSH1 0x1 DUP2 ADD SWAP1 POP PUSH2 0x1675 JUMP JUMPDEST POP DUP6 SWAP4 POP POP POP POP SWAP3 SWAP2 POP POP JUMP JUMPDEST PUSH0 PUSH1 0x40 DUP3 ADD SWAP1 POP DUP2 DUP2 SUB PUSH0 DUP4 ADD MSTORE PUSH2 0x16C7 DUP2 DUP6 PUSH2 0x15AB JUMP JUMPDEST SWAP1 POP DUP2 DUP2 SUB PUSH1 0x20 DUP4 ADD MSTORE PUSH2 0x16DB DUP2 DUP5 PUSH2 0x1653 JUMP JUMPDEST SWAP1 POP SWAP4 SWAP3 POP POP POP JUMP JUMPDEST PUSH0 PUSH1 0xC0 DUP3 ADD SWAP1 POP PUSH2 0x16F7 PUSH0 DUP4 ADD DUP10 PUSH2 0x14C6 JUMP JUMPDEST PUSH2 0x1704 PUSH1 0x20 DUP4 ADD DUP9 PUSH2 0x1473 JUMP JUMPDEST PUSH2 0x1711 PUSH1 0x40 DUP4 ADD DUP8 PUSH2 0x1473 JUMP JUMPDEST PUSH2 0x171E PUSH1 0x60 DUP4 ADD DUP7 PUSH2 0x1473 JUMP JUMPDEST PUSH2 0x172B PUSH1 0x80 DUP4 ADD DUP6 PUSH2 0x1473 JUMP JUMPDEST PUSH2 0x1738 PUSH1 0xA0 DUP4 ADD DUP5 PUSH2 0x1473 JUMP JUMPDEST SWAP8 SWAP7 POP POP POP POP POP POP POP JUMP JUMPDEST PUSH32 0x4E487B7100000000000000000000000000000000000000000000000000000000 PUSH0 MSTORE PUSH1 0x11 PUSH1 0x4 MSTORE PUSH1 0x24 PUSH0 REVERT JUMPDEST PUSH0 PUSH2 0x177A DUP3 PUSH2 0x1233 JUMP JUMPDEST SWAP2 POP PUSH2 0x1785 DUP4 PUSH2 0x1233 JUMP JUMPDEST SWAP3 POP DUP3 DUP3 SUB SWAP1 POP DUP2 DUP2 GT ISZERO PUSH2 0x179D JUMPI PUSH2 0x179C PUSH2 0x1743 JUMP JUMPDEST JUMPDEST SWAP3 SWAP2 POP POP JUMP JUMPDEST PUSH0 PUSH2 0x17AD DUP3 PUSH2 0x1233 JUMP JUMPDEST SWAP2 POP PUSH32 0xFFFFFFFFFFFFFFFFFFFFFFFFFFFFFFFFFFFFFFFFFFFFFFFFFFFFFFFFFFFFFFFF DUP3 SUB PUSH2 0x17DF JUMPI PUSH2 0x17DE PUSH2 0x1743 JUMP JUMPDEST JUMPDEST PUSH1 0x1 DUP3 ADD SWAP1 POP SWAP2 SWAP1 POP JUMP JUMPDEST PUSH0 PUSH2 0x17F4 DUP3 PUSH2 0x1233 JUMP JUMPDEST SWAP2 POP PUSH2 0x17FF DUP4 PUSH2 0x1233 JUMP JUMPDEST SWAP3 POP DUP3 DUP3 ADD SWAP1 POP DUP1 DUP3 GT ISZERO PUSH2 0x1817 JUMPI PUSH2 0x1816 PUSH2 0x1743 JUMP JUMPDEST JUMPDEST SWAP3 SWAP2 POP POP JUMP JUMPDEST PUSH0 PUSH1 0x60 DUP3 ADD SWAP1 POP PUSH2 0x1830 PUSH0 DUP4 ADD DUP7 PUSH2 0x1473 JUMP JUMPDEST PUSH2 0x183D PUSH1 0x20 DUP4 ADD DUP6 PUSH2 0x1473 JUMP JUMPDEST PUSH2 0x184A PUSH1 0x40 DUP4 ADD DUP5 PUSH2 0x1473 JUMP JUMPDEST SWAP5 SWAP4 POP POP POP POP JUMP JUMPDEST PUSH0 DUP3 DUP3 MSTORE PUSH1 0x20 DUP3 ADD SWAP1 POP SWAP3 SWAP2 POP POP JUMP JUMPDEST PUSH32 0x536561736F6E206E6F74206F7665720000000000000000000000000000000000 PUSH0 DUP3 ADD MSTORE POP JUMP JUMPDEST PUSH0 PUSH2 0x1896 PUSH1 0xF DUP4 PUSH2 0x1852 JUMP JUMPDEST SWAP2 POP PUSH2 0x18A1 DUP3 PUSH2 0x1862 JUMP JUMPDEST PUSH1 0x20 DUP3 ADD SWAP1 POP SWAP2 SWAP1 POP JUMP JUMPDEST PUSH0 PUSH1 0x20 DUP3 ADD SWAP1 POP DUP2 DUP2 SUB PUSH0 DUP4 ADD MSTORE PUSH2 0x18C3 DUP2 PUSH2 0x188A JUMP JUMPDEST SWAP1 POP SWAP2 SWAP1 POP JUMP JUMPDEST PUSH0 PUSH1 0x40 DUP3 ADD SWAP1 POP PUSH2 0x18DD PUSH0 DUP4 ADD DUP6 PUSH2 0x1473 JUMP JUMPDEST PUSH2 0x18EA PUSH1 0x20 DUP4 ADD DUP5 PUSH2 0x1473 JUMP JUMPDEST SWAP4 SWAP3 POP POP POP JUMP JUMPDEST PUSH32 0x4E487B7100000000000000000000000000000000000000000000000000000000 PUSH0 MSTORE PUSH1 0x41 PUSH1 0x4 MSTORE PUSH1 0x24 PUSH0 REVERT JUMPDEST PUSH32 0x4E487B7100000000000000000000000000000000000000000000000000000000 PUSH0 MSTORE PUSH1 0x32 PUSH1 0x4 MSTORE PUSH1 0x24 PUSH0 REVERT INVALID LOG2 PUSH5 0x6970667358 0x22 SLT KECCAK256 0xDC 0xB6 STOP 0x27 KECCAK256 EXP PUSH32 0x1DA236F241FBA856F036B5C7D9504F596E10BA84D18A39FFDE64736F6C634300 ADDMOD XOR STOP CALLER "},"methodIdentifiers":{"SEASON_DURATION()":"dc185e35","currentSeason()":"bcb39621","getCurrentSeason()":"d3b30b75","getLeaderboard(uint256,uint256)":"73af16fc","getPlayerStats(address)":"4fd66eae","getTopPlayers(uint256)":"ba3c0067","hasParticipatedInSeason(uint256,address)":"ab12d87f","playerSeasonTotalScore(uint256,address)":"c5d8860d","players(address)":"e2eb41ff","seasonParticipants(uint256)":"a68643c1","seasonStartTime()":"8104ae4d","startNewSeason()":"b6ceb61f","submitScore(uint256,uint256)":"8358ba08"}}}}}