{
  "_format": "hh3-artifact-1",
  "contractName": "BaseSeasons",
  "sourceName": "contracts/BaseSeasons.sol",
  "abi": [
    {
      "inputs": [],
      "stateMutability": "nonpayable",
      "type": "constructor"
    },
    {
      "anonymous": false,
      "inputs": [
        {
          "indexed": false,
          "internalType": "uint256",
          "name": "seasonId",
          "type": "uint256"
        },
        {
          "indexed": false,
          "internalType": "uint256",
          "name": "startTime",
          "type": "uint256"
        }
      ],
      "name": "NewSeasonStarted",
      "type": "event"
    },
    {
      "anonymous": false,
      "inputs": [
        {
          "indexed": true,
          "internalType": "address",
          "name": "player",
          "type": "address"
        },
        {
          "indexed": true,
          "internalType": "uint256",
          "name": "gameId",
          "type": "uint256"
        },
        {
          "indexed": false,
          "internalType": "uint256",
          "name": "score",
          "type": "uint256"
        },
        {
          "indexed": false,
          "internalType": "uint256",
          "name": "timestamp",
          "type": "uint256"
        },
        {
          "indexed": false,
          "internalType": "uint256",
          "name": "seasonId",
          "type": "uint256"
        }
      ],
      "name": "ScoreSubmitted",
      "type": "event"
    },
    {
      "inputs": [],
      "name": "DOMAIN_SEPARATOR",
      "outputs": [
        {
          "internalType": "bytes32",
          "name": "",
          "type": "bytes32"
        }
      ],
      "stateMutability": "view",
      "type": "function"
    },
    {
      "inputs": [],
      "name": "SCORE_TYPEHASH",
      "outputs": [
        {
          "internalType": "bytes32",
          "name": "",
          "type": "bytes32"
        }
      ],
      "stateMutability": "view",
      "type": "function"
    },
    {
      "inputs": [],
      "name": "SEASON_DURATION",
      "outputs": [
        {
          "internalType": "uint256",
          "name": "",
          "type": "uint256"
        }
      ],
      "stateMutability": "view",
      "type": "function"
    },
    {
      "inputs": [],
      "name": "currentSeason",
      "outputs": [
        {
          "internalType": "uint256",
          "name": "",
          "type": "uint256"
        }
      ],
      "stateMutability": "view",
      "type": "function"
    },
    {
      "inputs": [
        {
          "internalType": "uint256",
          "name": "",
          "type": "uint256"
        }
      ],
      "name": "gameHighestScores",
      "outputs": [
        {
          "internalType": "uint256",
          "name": "",
          "type": "uint256"
        }
      ],
      "stateMutability": "view",
      "type": "function"
    },
    {
      "inputs": [
        {
          "internalType": "uint256",
          "name": "",
          "type": "uint256"
        }
      ],
      "name": "gameTotalPlays",
      "outputs": [
        {
          "internalType": "uint256",
          "name": "",
          "type": "uint256"
        }
      ],
      "stateMutability": "view",
      "type": "function"
    },
    {
      "inputs": [
        {
          "internalType": "uint256",
          "name": "gameId",
          "type": "uint256"
        },
        {
          "internalType": "uint256",
          "name": "seasonId",
          "type": "uint256"
        }
      ],
      "name": "getLeaderboard",
      "outputs": [
        {
          "components": [
            {
              "internalType": "address",
              "name": "player",
              "type": "address"
            },
            {
              "internalType": "uint256",
              "name": "score",
              "type": "uint256"
            },
            {
              "internalType": "uint256",
              "name": "timestamp",
              "type": "uint256"
            }
          ],
          "internalType": "struct BaseSeasons.Score[]",
          "name": "",
          "type": "tuple[]"
        }
      ],
      "stateMutability": "view",
      "type": "function"
    },
    {
      "inputs": [],
      "name": "globalGamesPlayed",
      "outputs": [
        {
          "internalType": "uint256",
          "name": "",
          "type": "uint256"
        }
      ],
      "stateMutability": "view",
      "type": "function"
    },
    {
      "inputs": [],
      "name": "globalHighestScore",
      "outputs": [
        {
          "internalType": "uint256",
          "name": "",
          "type": "uint256"
        }
      ],
      "stateMutability": "view",
      "type": "function"
    },
    {
      "inputs": [],
      "name": "globalTotalPlayers",
      "outputs": [
        {
          "internalType": "uint256",
          "name": "",
          "type": "uint256"
        }
      ],
      "stateMutability": "view",
      "type": "function"
    },
    {
      "inputs": [
        {
          "internalType": "address",
          "name": "",
          "type": "address"
        }
      ],
      "name": "nonces",
      "outputs": [
        {
          "internalType": "uint256",
          "name": "",
          "type": "uint256"
        }
      ],
      "stateMutability": "view",
      "type": "function"
    },
    {
      "inputs": [
        {
          "internalType": "address",
          "name": "",
          "type": "address"
        }
      ],
      "name": "players",
      "outputs": [
        {
          "internalType": "uint256",
          "name": "totalScore",
          "type": "uint256"
        },
        {
          "internalType": "uint256",
          "name": "bestScore",
          "type": "uint256"
        },
        {
          "internalType": "uint256",
          "name": "gamesPlayed",
          "type": "uint256"
        },
        {
          "internalType": "uint256",
          "name": "lastPlayed",
          "type": "uint256"
        },
        {
          "internalType": "uint256",
          "name": "joinDate",
          "type": "uint256"
        }
      ],
      "stateMutability": "view",
      "type": "function"
    },
    {
      "inputs": [],
      "name": "seasonStartTime",
      "outputs": [
        {
          "internalType": "uint256",
          "name": "",
          "type": "uint256"
        }
      ],
      "stateMutability": "view",
      "type": "function"
    },
    {
      "inputs": [
        {
          "internalType": "uint256",
          "name": "gameId",
          "type": "uint256"
        },
        {
          "internalType": "uint256",
          "name": "score",
          "type": "uint256"
        },
        {
          "internalType": "uint256",
          "name": "timestamp",
          "type": "uint256"
        },
        {
          "internalType": "uint8",
          "name": "v",
          "type": "uint8"
        },
        {
          "internalType": "bytes32",
          "name": "r",
          "type": "bytes32"
        },
        {
          "internalType": "bytes32",
          "name": "s",
          "type": "bytes32"
        }
      ],
      "name": "submitScore",
      "outputs": [],
      "stateMutability": "nonpayable",
      "type": "function"
    }
  ],
  "bytecode": "0x60a060405260015f5534801562000014575f80fd5b50426001819055507f8b73c3c69bb8fe3d512ecc4cf759cc79239f7b179b0ffacaa9a75d522b39400f6040518060400160405280600b81526020017f42617365536561736f6e73000000000000000000000000000000000000000000815250805190602001206040518060400160405280600181526020017f3100000000000000000000000000000000000000000000000000000000000000815250805190602001204630604051602001620000cf95949392919062000169565b6040516020818303038152906040528051906020012060808181525050620001c4565b5f819050919050565b6200010681620000f2565b82525050565b5f819050919050565b62000120816200010c565b82525050565b5f73ffffffffffffffffffffffffffffffffffffffff82169050919050565b5f620001518262000126565b9050919050565b620001638162000145565b82525050565b5f60a0820190506200017e5f830188620000fb565b6200018d6020830187620000fb565b6200019c6040830186620000fb565b620001ab606083018562000115565b620001ba608083018462000158565b9695505050505050565b6080516112ab620001e45f395f818161030301526105ac01526112ab5ff3fe608060405234801561000f575f80fd5b50600436106100e8575f3560e01c80639b97afa51161008a578063bcb3962111610064578063bcb3962114610260578063c278d0cf1461027e578063dc185e351461029a578063e2eb41ff146102b8576100e8565b80639b97afa5146101f45780639eaa8ac614610224578063b70f483914610242576100e8565b80637825f09d116100c65780637825f09d1461016a5780637ecebe00146101885780638104ae4d146101b8578063944303a8146101d6576100e8565b8063146bca9b146100ec5780633644e5151461011c57806373af16fc1461013a575b5f80fd5b61010660048036038101906101019190610ab1565b6102ec565b6040516101139190610aeb565b60405180910390f35b610124610301565b6040516101319190610b1c565b60405180910390f35b610154600480360381019061014f9190610b35565b610325565b6040516101619190610ca9565b60405180910390f35b61017261040a565b60405161017f9190610aeb565b60405180910390f35b6101a2600480360381019061019d9190610cf3565b610410565b6040516101af9190610aeb565b60405180910390f35b6101c0610425565b6040516101cd9190610aeb565b60405180910390f35b6101de61042b565b6040516101eb9190610b1c565b60405180910390f35b61020e60048036038101906102099190610ab1565b61044f565b60405161021b9190610aeb565b60405180910390f35b61022c610464565b6040516102399190610aeb565b60405180910390f35b61024a61046a565b6040516102579190610aeb565b60405180910390f35b610268610470565b6040516102759190610aeb565b60405180910390f35b61029860048036038101906102939190610d7e565b610475565b005b6102a26109ce565b6040516102af9190610aeb565b60405180910390f35b6102d260048036038101906102cd9190610cf3565b6109d5565b6040516102e3959493929190610e07565b60405180910390f35b6008602052805f5260405f205f915090505481565b7f000000000000000000000000000000000000000000000000000000000000000081565b606060065f8381526020019081526020015f205f8481526020019081526020015f20805480602002602001604051908101604052809291908181526020015f905b828210156103fe578382905f5260205f2090600302016040518060600160405290815f82015f9054906101000a900473ffffffffffffffffffffffffffffffffffffffff1673ffffffffffffffffffffffffffffffffffffffff1673ffffffffffffffffffffffffffffffffffffffff1681526020016001820154815260200160028201548152505081526020019060010190610366565b50505050905092915050565b60025481565b6007602052805f5260405f205f915090505481565b60015481565b7feb19d3567e2bd789f73ecfacb68bc691d46b72bab7884421c2cd69739fd6c51c81565b6009602052805f5260405f205f915090505481565b60045481565b60035481565b5f5481565b61012c846104839190610e85565b4211156104c5576040517f08c379a00000000000000000000000000000000000000000000000000000000081526004016104bc90610f12565b60405180910390fd5b603c426104d29190610e85565b841115610514576040517f08c379a000000000000000000000000000000000000000000000000000000000815260040161050b90610f7a565b60405180910390fd5b5f60075f3373ffffffffffffffffffffffffffffffffffffffff1673ffffffffffffffffffffffffffffffffffffffff1681526020019081526020015f205490505f7feb19d3567e2bd789f73ecfacb68bc691d46b72bab7884421c2cd69739fd6c51c338989898660405160200161059196959493929190610fa7565b6040516020818303038152906040528051906020012090505f7f0000000000000000000000000000000000000000000000000000000000000000826040516020016105dd92919061107a565b6040516020818303038152906040528051906020012090505f6001828888886040515f815260200160405260405161061894939291906110bf565b6020604051602081039080840390855afa158015610638573d5f803e3d5ffd5b5050506020604051035190503373ffffffffffffffffffffffffffffffffffffffff168173ffffffffffffffffffffffffffffffffffffffff16146106b2576040517f08c379a00000000000000000000000000000000000000000000000000000000081526004016106a99061114c565b60405180910390fd5b60075f3373ffffffffffffffffffffffffffffffffffffffff1673ffffffffffffffffffffffffffffffffffffffff1681526020019081526020015f205f8154809291906106ff9061116a565b919050555061070c610a07565b5f60055f3373ffffffffffffffffffffffffffffffffffffffff1673ffffffffffffffffffffffffffffffffffffffff1681526020019081526020015f209050601e816003015461075d9190610e85565b42101561079f576040517f08c379a0000000000000000000000000000000000000000000000000000000008152600401610796906111fb565b60405180910390fd5b5f8160040154036107cb5742816004018190555060025f8154809291906107c59061116a565b91905055505b428160030181905550806002015f8154809291906107e89061116a565b919050555089815f015f8282546107ff9190610e85565b9250508190555080600101548a111561081c578981600101819055505b60035f81548092919061082e9061116a565b919050555060085f8c81526020019081526020015f205f8154809291906108549061116a565b91905055506004548a111561086b57896004819055505b60095f8c81526020019081526020015f20548a111561089b578960095f8d81526020019081526020015f20819055505b60065f805481526020019081526020015f205f8c81526020019081526020015f2060405180606001604052803373ffffffffffffffffffffffffffffffffffffffff1681526020018c815260200142815250908060018154018082558091505060019003905f5260205f2090600302015f909190919091505f820151815f015f6101000a81548173ffffffffffffffffffffffffffffffffffffffff021916908373ffffffffffffffffffffffffffffffffffffffff160217905550602082015181600101556040820151816002015550508a3373ffffffffffffffffffffffffffffffffffffffff167f04f4c0f5a4a2f0a08f6e3b4fd6a5abaa7af15961534922311add59aeef2e1d928c425f546040516109b993929190611219565b60405180910390a35050505050505050505050565b62093a8081565b6005602052805f5260405f205f91509050805f0154908060010154908060020154908060030154908060040154905085565b62093a80600154610a189190610e85565b4210610a78575f80815480929190610a2f9061116a565b9190505550426001819055507f5feb0a32eea801838a700102aa274f5c7217fcf79d5b869a0e702d4ea8c5642d5f54600154604051610a6f92919061124e565b60405180910390a15b565b5f80fd5b5f819050919050565b610a9081610a7e565b8114610a9a575f80fd5b50565b5f81359050610aab81610a87565b92915050565b5f60208284031215610ac657610ac5610a7a565b5b5f610ad384828501610a9d565b91505092915050565b610ae581610a7e565b82525050565b5f602082019050610afe5f830184610adc565b92915050565b5f819050919050565b610b1681610b04565b82525050565b5f602082019050610b2f5f830184610b0d565b92915050565b5f8060408385031215610b4b57610b4a610a7a565b5b5f610b5885828601610a9d565b9250506020610b6985828601610a9d565b9150509250929050565b5f81519050919050565b5f82825260208201905092915050565b5f819050602082019050919050565b5f73ffffffffffffffffffffffffffffffffffffffff82169050919050565b5f610bc582610b9c565b9050919050565b610bd581610bbb565b82525050565b610be481610a7e565b82525050565b606082015f820151610bfe5f850182610bcc565b506020820151610c116020850182610bdb565b506040820151610c246040850182610bdb565b50505050565b5f610c358383610bea565b60608301905092915050565b5f602082019050919050565b5f610c5782610b73565b610c618185610b7d565b9350610c6c83610b8d565b805f5b83811015610c9c578151610c838882610c2a565b9750610c8e83610c41565b925050600181019050610c6f565b5085935050505092915050565b5f6020820190508181035f830152610cc18184610c4d565b905092915050565b610cd281610bbb565b8114610cdc575f80fd5b50565b5f81359050610ced81610cc9565b92915050565b5f60208284031215610d0857610d07610a7a565b5b5f610d1584828501610cdf565b91505092915050565b5f60ff82169050919050565b610d3381610d1e565b8114610d3d575f80fd5b50565b5f81359050610d4e81610d2a565b92915050565b610d5d81610b04565b8114610d67575f80fd5b50565b5f81359050610d7881610d54565b92915050565b5f805f805f8060c08789031215610d9857610d97610a7a565b5b5f610da589828a01610a9d565b9650506020610db689828a01610a9d565b9550506040610dc789828a01610a9d565b9450506060610dd889828a01610d40565b9350506080610de989828a01610d6a565b92505060a0610dfa89828a01610d6a565b9150509295509295509295565b5f60a082019050610e1a5f830188610adc565b610e276020830187610adc565b610e346040830186610adc565b610e416060830185610adc565b610e4e6080830184610adc565b9695505050505050565b7f4e487b71000000000000000000000000000000000000000000000000000000005f52601160045260245ffd5b5f610e8f82610a7e565b9150610e9a83610a7e565b9250828201905080821115610eb257610eb1610e58565b5b92915050565b5f82825260208201905092915050565b7f5369676e617475726520657870697265640000000000000000000000000000005f82015250565b5f610efc601183610eb8565b9150610f0782610ec8565b602082019050919050565b5f6020820190508181035f830152610f2981610ef0565b9050919050565b7f496e76616c6964206675747572652074696d657374616d7000000000000000005f82015250565b5f610f64601883610eb8565b9150610f6f82610f30565b602082019050919050565b5f6020820190508181035f830152610f9181610f58565b9050919050565b610fa181610bbb565b82525050565b5f60c082019050610fba5f830189610b0d565b610fc76020830188610f98565b610fd46040830187610adc565b610fe16060830186610adc565b610fee6080830185610adc565b610ffb60a0830184610adc565b979650505050505050565b5f81905092915050565b7f19010000000000000000000000000000000000000000000000000000000000005f82015250565b5f611044600283611006565b915061104f82611010565b600282019050919050565b5f819050919050565b61107461106f82610b04565b61105a565b82525050565b5f61108482611038565b91506110908285611063565b6020820191506110a08284611063565b6020820191508190509392505050565b6110b981610d1e565b82525050565b5f6080820190506110d25f830187610b0d565b6110df60208301866110b0565b6110ec6040830185610b0d565b6110f96060830184610b0d565b95945050505050565b7f496e76616c6964207369676e61747572650000000000000000000000000000005f82015250565b5f611136601183610eb8565b915061114182611102565b602082019050919050565b5f6020820190508181035f8301526111638161112a565b9050919050565b5f61117482610a7e565b91507fffffffffffffffffffffffffffffffffffffffffffffffffffffffffffffffff82036111a6576111a5610e58565b5b600182019050919050565b7f436f6f6c646f776e2061637469766500000000000000000000000000000000005f82015250565b5f6111e5600f83610eb8565b91506111f0826111b1565b602082019050919050565b5f6020820190508181035f830152611212816111d9565b9050919050565b5f60608201905061122c5f830186610adc565b6112396020830185610adc565b6112466040830184610adc565b949350505050565b5f6040820190506112615f830185610adc565b61126e6020830184610adc565b939250505056fea26469706673582212209ee87c7c115730d05d0f5c1e2e5bb1021248dbbcac0a98b647ae0ed4558bb29764736f6c63430008180033",
  "linkReferences": {},
  "deployedLinkReferences": {},
  "immutableReferences": {
    "21": [
      {
        "length": 32,
        "start": 771
      },
      {
        "length": 32,
        "start": 1452
      }
    ]
  },
  "inputSourceName": "project/contracts/BaseSeasons.sol",
  "buildInfoId": "solc-0_8_24-58e4e59dff0f2a069c6b3aa98dddf6ecd5ab0744"
}