{
  "_format": "hh3-artifact-1",
  "contractName": "BaseSeasons",
  "sourceName": "contracts/BaseSeasons.sol",
  "abi": [
    {
      "inputs": [],
      "stateMutability": "nonpayable",
      "type": "constructor"
    },
    {
      "anonymous": false,
      "inputs": [
        {
          "indexed": false,
          "internalType": "uint256",
          "name": "seasonId",
          "type": "uint256"
        },
        {
          "indexed": false,
          "internalType": "uint256",
          "name": "startTime",
          "type": "uint256"
        }
      ],
      "name": "NewSeasonStarted",
      "type": "event"
    },
    {
      "anonymous": false,
      "inputs": [
        {
          "indexed": true,
          "internalType": "address",
          "name": "player",
          "type": "address"
        },
        {
          "indexed": true,
          "internalType": "uint256",
          "name": "gameId",
          "type": "uint256"
        },
        {
          "indexed": false,
          "internalType": "uint256",
          "name": "score",
          "type": "uint256"
        },
        {
          "indexed": false,
          "internalType": "uint256",
          "name": "timestamp",
          "type": "uint256"
        },
        {
          "indexed": false,
          "internalType": "uint256",
          "name": "seasonId",
          "type": "uint256"
        }
      ],
      "name": "ScoreSubmitted",
      "type": "event"
    },
    {
      "anonymous": false,
      "inputs": [
        {
          "indexed": true,
          "internalType": "address",
          "name": "player",
          "type": "address"
        },
        {
          "indexed": false,
          "internalType": "uint256",
          "name": "newStreak",
          "type": "uint256"
        }
      ],
      "name": "StreakUpdated",
      "type": "event"
    },
    {
      "inputs": [],
      "name": "SEASON_DURATION",
      "outputs": [
        {
          "internalType": "uint256",
          "name": "",
          "type": "uint256"
        }
      ],
      "stateMutability": "view",
      "type": "function"
    },
    {
      "inputs": [],
      "name": "currentSeason",
      "outputs": [
        {
          "internalType": "uint256",
          "name": "",
          "type": "uint256"
        }
      ],
      "stateMutability": "view",
      "type": "function"
    },
    {
      "inputs": [],
      "name": "getCurrentSeason",
      "outputs": [
        {
          "internalType": "uint256",
          "name": "",
          "type": "uint256"
        }
      ],
      "stateMutability": "view",
      "type": "function"
    },
    {
      "inputs": [
        {
          "internalType": "uint256",
          "name": "gameId",
          "type": "uint256"
        },
        {
          "internalType": "uint256",
          "name": "seasonId",
          "type": "uint256"
        }
      ],
      "name": "getLeaderboard",
      "outputs": [
        {
          "components": [
            {
              "internalType": "address",
              "name": "player",
              "type": "address"
            },
            {
              "internalType": "uint256",
              "name": "gameId",
              "type": "uint256"
            },
            {
              "internalType": "uint256",
              "name": "score",
              "type": "uint256"
            },
            {
              "internalType": "uint256",
              "name": "timestamp",
              "type": "uint256"
            },
            {
              "internalType": "uint256",
              "name": "seasonId",
              "type": "uint256"
            }
          ],
          "internalType": "struct BaseSeasons.Score[]",
          "name": "",
          "type": "tuple[]"
        }
      ],
      "stateMutability": "view",
      "type": "function"
    },
    {
      "inputs": [
        {
          "internalType": "address",
          "name": "player",
          "type": "address"
        }
      ],
      "name": "getPlayerStats",
      "outputs": [
        {
          "components": [
            {
              "internalType": "address",
              "name": "wallet",
              "type": "address"
            },
            {
              "internalType": "uint256",
              "name": "totalScore",
              "type": "uint256"
            },
            {
              "internalType": "uint256",
              "name": "bestScore",
              "type": "uint256"
            },
            {
              "internalType": "uint256",
              "name": "gamesPlayed",
              "type": "uint256"
            },
            {
              "internalType": "uint256",
              "name": "currentStreak",
              "type": "uint256"
            },
            {
              "internalType": "uint256",
              "name": "lastPlayed",
              "type": "uint256"
            }
          ],
          "internalType": "struct BaseSeasons.Player",
          "name": "",
          "type": "tuple"
        }
      ],
      "stateMutability": "view",
      "type": "function"
    },
    {
      "inputs": [
        {
          "internalType": "uint256",
          "name": "seasonId",
          "type": "uint256"
        }
      ],
      "name": "getTopPlayers",
      "outputs": [
        {
          "internalType": "address[]",
          "name": "topAddresses",
          "type": "address[]"
        },
        {
          "internalType": "uint256[]",
          "name": "topScores",
          "type": "uint256[]"
        }
      ],
      "stateMutability": "view",
      "type": "function"
    },
    {
      "inputs": [
        {
          "internalType": "uint256",
          "name": "",
          "type": "uint256"
        },
        {
          "internalType": "address",
          "name": "",
          "type": "address"
        }
      ],
      "name": "hasParticipatedInSeason",
      "outputs": [
        {
          "internalType": "bool",
          "name": "",
          "type": "bool"
        }
      ],
      "stateMutability": "view",
      "type": "function"
    },
    {
      "inputs": [
        {
          "internalType": "uint256",
          "name": "",
          "type": "uint256"
        },
        {
          "internalType": "address",
          "name": "",
          "type": "address"
        }
      ],
      "name": "playerSeasonTotalScore",
      "outputs": [
        {
          "internalType": "uint256",
          "name": "",
          "type": "uint256"
        }
      ],
      "stateMutability": "view",
      "type": "function"
    },
    {
      "inputs": [
        {
          "internalType": "address",
          "name": "",
          "type": "address"
        }
      ],
      "name": "players",
      "outputs": [
        {
          "internalType": "address",
          "name": "wallet",
          "type": "address"
        },
        {
          "internalType": "uint256",
          "name": "totalScore",
          "type": "uint256"
        },
        {
          "internalType": "uint256",
          "name": "bestScore",
          "type": "uint256"
        },
        {
          "internalType": "uint256",
          "name": "gamesPlayed",
          "type": "uint256"
        },
        {
          "internalType": "uint256",
          "name": "currentStreak",
          "type": "uint256"
        },
        {
          "internalType": "uint256",
          "name": "lastPlayed",
          "type": "uint256"
        }
      ],
      "stateMutability": "view",
      "type": "function"
    },
    {
      "inputs": [
        {
          "internalType": "uint256",
          "name": "",
          "type": "uint256"
        }
      ],
      "name": "seasonParticipants",
      "outputs": [
        {
          "internalType": "address",
          "name": "",
          "type": "address"
        }
      ],
      "stateMutability": "view",
      "type": "function"
    },
    {
      "inputs": [],
      "name": "seasonStartTime",
      "outputs": [
        {
          "internalType": "uint256",
          "name": "",
          "type": "uint256"
        }
      ],
      "stateMutability": "view",
      "type": "function"
    },
    {
      "inputs": [],
      "name": "startNewSeason",
      "outputs": [],
      "stateMutability": "nonpayable",
      "type": "function"
    },
    {
      "inputs": [
        {
          "internalType": "uint256",
          "name": "gameId",
          "type": "uint256"
        },
        {
          "internalType": "uint256",
          "name": "score",
          "type": "uint256"
        }
      ],
      "name": "submitScore",
      "outputs": [],
      "stateMutability": "nonpayable",
      "type": "function"
    }
  ],
  "bytecode": "0x608060405260015f55348015610013575f80fd5b5042600181905550611981806100285f395ff3fe608060405234801561000f575f80fd5b50600436106100cd575f3560e01c8063b6ceb61f1161008a578063c5d8860d11610064578063c5d8860d14610224578063d3b30b7514610254578063dc185e3514610272578063e2eb41ff14610290576100cd565b8063b6ceb61f146101cb578063ba3c0067146101d5578063bcb3962114610206576100cd565b80634fd66eae146100d157806373af16fc146101015780638104ae4d146101315780638358ba081461014f578063a68643c11461016b578063ab12d87f1461019b575b5f80fd5b6100eb60048036038101906100e691906111f9565b6102c5565b6040516100f891906112c4565b60405180910390f35b61011b60048036038101906101169190611307565b6103a2565b6040516101289190611453565b60405180910390f35b61013961049b565b6040516101469190611482565b60405180910390f35b61016960048036038101906101649190611307565b6104a1565b005b6101856004803603810190610180919061149b565b6109ce565b60405161019291906114d5565b60405180910390f35b6101b560048036038101906101b091906114ee565b610a09565b6040516101c29190611546565b60405180910390f35b6101d3610a33565b005b6101ef60048036038101906101ea919061149b565b610aee565b6040516101fd9291906116af565b60405180910390f35b61020e611011565b60405161021b9190611482565b60405180910390f35b61023e600480360381019061023991906114ee565b611016565b60405161024b9190611482565b60405180910390f35b61025c611036565b6040516102699190611482565b60405180910390f35b61027a61103e565b6040516102879190611482565b60405180910390f35b6102aa60048036038101906102a591906111f9565b611045565b6040516102bc969594939291906116e4565b60405180910390f35b6102cd61111c565b60025f8373ffffffffffffffffffffffffffffffffffffffff1673ffffffffffffffffffffffffffffffffffffffff1681526020019081526020015f206040518060c00160405290815f82015f9054906101000a900473ffffffffffffffffffffffffffffffffffffffff1673ffffffffffffffffffffffffffffffffffffffff1673ffffffffffffffffffffffffffffffffffffffff168152602001600182015481526020016002820154815260200160038201548152602001600482015481526020016005820154815250509050919050565b606060035f8381526020019081526020015f205f8481526020019081526020015f20805480602002602001604051908101604052809291908181526020015f905b8282101561048f578382905f5260205f2090600502016040518060a00160405290815f82015f9054906101000a900473ffffffffffffffffffffffffffffffffffffffff1673ffffffffffffffffffffffffffffffffffffffff1673ffffffffffffffffffffffffffffffffffffffff168152602001600182015481526020016002820154815260200160038201548152602001600482015481525050815260200190600101906103e3565b50505050905092915050565b60015481565b6104a961109c565b5f60025f3373ffffffffffffffffffffffffffffffffffffffff1673ffffffffffffffffffffffffffffffffffffffff1681526020019081526020015f2090505f73ffffffffffffffffffffffffffffffffffffffff16815f015f9054906101000a900473ffffffffffffffffffffffffffffffffffffffff1673ffffffffffffffffffffffffffffffffffffffff16036105805733815f015f6101000a81548173ffffffffffffffffffffffffffffffffffffffff021916908373ffffffffffffffffffffffffffffffffffffffff1602179055505b5f81600501541115610699575f81600501544261059d9190611770565b90506201518081101580156105b557506202a3008111155b1561062a57816004015f8154809291906105ce906117a3565b91905055503373ffffffffffffffffffffffffffffffffffffffff167f46f6fe577ecfefe55b0f14f0b42ddb4c22db1fb9bade43aa02c5ef4e5439512e836004015460405161061d9190611482565b60405180910390a2610693565b6202a30081111561069257600182600401819055503373ffffffffffffffffffffffffffffffffffffffff167f46f6fe577ecfefe55b0f14f0b42ddb4c22db1fb9bade43aa02c5ef4e5439512e83600401546040516106899190611482565b60405180910390a25b5b506106a4565b600181600401819055505b428160050181905550806003015f8154809291906106c1906117a3565b919050555081816001015f8282546106d991906117ea565b9250508190555080600201548211156106f6578181600201819055505b60055f805481526020019081526020015f205f3373ffffffffffffffffffffffffffffffffffffffff1673ffffffffffffffffffffffffffffffffffffffff1681526020019081526020015f205f9054906101000a900460ff1661081a57600160055f805481526020019081526020015f205f3373ffffffffffffffffffffffffffffffffffffffff1673ffffffffffffffffffffffffffffffffffffffff1681526020019081526020015f205f6101000a81548160ff021916908315150217905550600433908060018154018082558091505060019003905f5260205f20015f9091909190916101000a81548173ffffffffffffffffffffffffffffffffffffffff021916908373ffffffffffffffffffffffffffffffffffffffff1602179055505b8160065f805481526020019081526020015f205f3373ffffffffffffffffffffffffffffffffffffffff1673ffffffffffffffffffffffffffffffffffffffff1681526020019081526020015f205f82825461087691906117ea565b925050819055505f6040518060a001604052803373ffffffffffffffffffffffffffffffffffffffff1681526020018581526020018481526020014281526020015f54815250905060035f805481526020019081526020015f205f8581526020019081526020015f2081908060018154018082558091505060019003905f5260205f2090600502015f909190919091505f820151815f015f6101000a81548173ffffffffffffffffffffffffffffffffffffffff021916908373ffffffffffffffffffffffffffffffffffffffff160217905550602082015181600101556040820151816002015560608201518160030155608082015181600401555050833373ffffffffffffffffffffffffffffffffffffffff167f04f4c0f5a4a2f0a08f6e3b4fd6a5abaa7af15961534922311add59aeef2e1d9285425f546040516109c09392919061181d565b60405180910390a350505050565b600481815481106109dd575f80fd5b905f5260205f20015f915054906101000a900473ffffffffffffffffffffffffffffffffffffffff1681565b6005602052815f5260405f20602052805f5260405f205f915091509054906101000a900460ff1681565b62093a80600154610a4491906117ea565b421015610a86576040517f08c379a0000000000000000000000000000000000000000000000000000000008152600401610a7d906118ac565b60405180910390fd5b5f80815480929190610a97906117a3565b91905055504260018190555060045f610ab09190611162565b7f5feb0a32eea801838a700102aa274f5c7217fcf79d5b869a0e702d4ea8c5642d5f54600154604051610ae49291906118ca565b60405180910390a1565b6060805f60048054905090505f600a8211610b095781610b0c565b600a5b90508067ffffffffffffffff811115610b2857610b276118f1565b5b604051908082528060200260200182016040528015610b565781602001602082028036833780820191505090505b5093508067ffffffffffffffff811115610b7357610b726118f1565b5b604051908082528060200260200182016040528015610ba15781602001602082028036833780820191505090505b5092505f8267ffffffffffffffff811115610bbf57610bbe6118f1565b5b604051908082528060200260200182016040528015610bed5781602001602082028036833780820191505090505b5090505f8367ffffffffffffffff811115610c0b57610c0a6118f1565b5b604051908082528060200260200182016040528015610c395781602001602082028036833780820191505090505b5090505f5b84811015610d835760048181548110610c5a57610c5961191e565b5b905f5260205f20015f9054906101000a900473ffffffffffffffffffffffffffffffffffffffff16838281518110610c9557610c9461191e565b5b602002602001019073ffffffffffffffffffffffffffffffffffffffff16908173ffffffffffffffffffffffffffffffffffffffff168152505060065f8981526020019081526020015f205f60048381548110610cf557610cf461191e565b5b905f5260205f20015f9054906101000a900473ffffffffffffffffffffffffffffffffffffffff1673ffffffffffffffffffffffffffffffffffffffff1673ffffffffffffffffffffffffffffffffffffffff1681526020019081526020015f2054828281518110610d6a57610d6961191e565b5b6020026020010181815250508080600101915050610c3e565b505f5b84811015610f4d575f600182610d9c91906117ea565b90505b85811015610f3f57828281518110610dba57610db961191e565b5b6020026020010151838281518110610dd557610dd461191e565b5b60200260200101511115610f32575f838381518110610df757610df661191e565b5b60200260200101519050838281518110610e1457610e1361191e565b5b6020026020010151848481518110610e2f57610e2e61191e565b5b60200260200101818152505080848381518110610e4f57610e4e61191e565b5b6020026020010181815250505f858481518110610e6f57610e6e61191e565b5b60200260200101519050858381518110610e8c57610e8b61191e565b5b6020026020010151868581518110610ea757610ea661191e565b5b602002602001019073ffffffffffffffffffffffffffffffffffffffff16908173ffffffffffffffffffffffffffffffffffffffff168152505080868481518110610ef557610ef461191e565b5b602002602001019073ffffffffffffffffffffffffffffffffffffffff16908173ffffffffffffffffffffffffffffffffffffffff168152505050505b8080600101915050610d9f565b508080600101915050610d86565b505f5b8381101561100757828181518110610f6b57610f6a61191e565b5b6020026020010151878281518110610f8657610f8561191e565b5b602002602001019073ffffffffffffffffffffffffffffffffffffffff16908173ffffffffffffffffffffffffffffffffffffffff1681525050818181518110610fd357610fd261191e565b5b6020026020010151868281518110610fee57610fed61191e565b5b6020026020010181815250508080600101915050610f50565b5050505050915091565b5f5481565b6006602052815f5260405f20602052805f5260405f205f91509150505481565b5f8054905090565b62093a8081565b6002602052805f5260405f205f91509050805f015f9054906101000a900473ffffffffffffffffffffffffffffffffffffffff16908060010154908060020154908060030154908060040154908060050154905086565b62093a806001546110ad91906117ea565b421061111a575f808154809291906110c4906117a3565b91905055504260018190555060045f6110dd9190611162565b7f5feb0a32eea801838a700102aa274f5c7217fcf79d5b869a0e702d4ea8c5642d5f546001546040516111119291906118ca565b60405180910390a15b565b6040518060c001604052805f73ffffffffffffffffffffffffffffffffffffffff1681526020015f81526020015f81526020015f81526020015f81526020015f81525090565b5080545f8255905f5260205f209081019061117d9190611180565b50565b5b80821115611197575f815f905550600101611181565b5090565b5f80fd5b5f73ffffffffffffffffffffffffffffffffffffffff82169050919050565b5f6111c88261119f565b9050919050565b6111d8816111be565b81146111e2575f80fd5b50565b5f813590506111f3816111cf565b92915050565b5f6020828403121561120e5761120d61119b565b5b5f61121b848285016111e5565b91505092915050565b61122d816111be565b82525050565b5f819050919050565b61124581611233565b82525050565b60c082015f82015161125f5f850182611224565b506020820151611272602085018261123c565b506040820151611285604085018261123c565b506060820151611298606085018261123c565b5060808201516112ab608085018261123c565b5060a08201516112be60a085018261123c565b50505050565b5f60c0820190506112d75f83018461124b565b92915050565b6112e681611233565b81146112f0575f80fd5b50565b5f81359050611301816112dd565b92915050565b5f806040838503121561131d5761131c61119b565b5b5f61132a858286016112f3565b925050602061133b858286016112f3565b9150509250929050565b5f81519050919050565b5f82825260208201905092915050565b5f819050602082019050919050565b60a082015f8201516113825f850182611224565b506020820151611395602085018261123c565b5060408201516113a8604085018261123c565b5060608201516113bb606085018261123c565b5060808201516113ce608085018261123c565b50505050565b5f6113df838361136e565b60a08301905092915050565b5f602082019050919050565b5f61140182611345565b61140b818561134f565b93506114168361135f565b805f5b8381101561144657815161142d88826113d4565b9750611438836113eb565b925050600181019050611419565b5085935050505092915050565b5f6020820190508181035f83015261146b81846113f7565b905092915050565b61147c81611233565b82525050565b5f6020820190506114955f830184611473565b92915050565b5f602082840312156114b0576114af61119b565b5b5f6114bd848285016112f3565b91505092915050565b6114cf816111be565b82525050565b5f6020820190506114e85f8301846114c6565b92915050565b5f80604083850312156115045761150361119b565b5b5f611511858286016112f3565b9250506020611522858286016111e5565b9150509250929050565b5f8115159050919050565b6115408161152c565b82525050565b5f6020820190506115595f830184611537565b92915050565b5f81519050919050565b5f82825260208201905092915050565b5f819050602082019050919050565b5f6115938383611224565b60208301905092915050565b5f602082019050919050565b5f6115b58261155f565b6115bf8185611569565b93506115ca83611579565b805f5b838110156115fa5781516115e18882611588565b97506115ec8361159f565b9250506001810190506115cd565b5085935050505092915050565b5f81519050919050565b5f82825260208201905092915050565b5f819050602082019050919050565b5f61163b838361123c565b60208301905092915050565b5f602082019050919050565b5f61165d82611607565b6116678185611611565b935061167283611621565b805f5b838110156116a25781516116898882611630565b975061169483611647565b925050600181019050611675565b5085935050505092915050565b5f6040820190508181035f8301526116c781856115ab565b905081810360208301526116db8184611653565b90509392505050565b5f60c0820190506116f75f8301896114c6565b6117046020830188611473565b6117116040830187611473565b61171e6060830186611473565b61172b6080830185611473565b61173860a0830184611473565b979650505050505050565b7f4e487b71000000000000000000000000000000000000000000000000000000005f52601160045260245ffd5b5f61177a82611233565b915061178583611233565b925082820390508181111561179d5761179c611743565b5b92915050565b5f6117ad82611233565b91507fffffffffffffffffffffffffffffffffffffffffffffffffffffffffffffffff82036117df576117de611743565b5b600182019050919050565b5f6117f482611233565b91506117ff83611233565b925082820190508082111561181757611816611743565b5b92915050565b5f6060820190506118305f830186611473565b61183d6020830185611473565b61184a6040830184611473565b949350505050565b5f82825260208201905092915050565b7f536561736f6e206e6f74206f76657200000000000000000000000000000000005f82015250565b5f611896600f83611852565b91506118a182611862565b602082019050919050565b5f6020820190508181035f8301526118c38161188a565b9050919050565b5f6040820190506118dd5f830185611473565b6118ea6020830184611473565b9392505050565b7f4e487b71000000000000000000000000000000000000000000000000000000005f52604160045260245ffd5b7f4e487b71000000000000000000000000000000000000000000000000000000005f52603260045260245ffdfea2646970667358221220dcb60027200a7f1da236f241fba856f036b5c7d9504f596e10ba84d18a39ffde64736f6c63430008180033",
  "linkReferences": {},
  "deployedLinkReferences": {},
  "immutableReferences": {},
  "inputSourceName": "project/contracts/BaseSeasons.sol",
  "buildInfoId": "solc-0_8_24-6bcaecd6243b5c2f370adaa7ed52c4acc6be296e"
}